:020000040800F2
:10000000582200208902000811680008954D000858
:100010000D68000845100008817600080000000007
:1000200000000000000000000000000059720008FD
:100030007910000800000000156800085D720008D3
:10004000A3020008A3020008A3020008A3020008FC
:10005000A3020008A3020008A3020008A3020008EC
:10006000A3020008A3020008A3020008A3020008DC
:10007000A3020008A3020008A3020008A3020008CC
:10008000A3020008A3020008A3020008A3020008BC
:1000900049100008A3020008A3020008A3020008F8
:1000A000A3020008A3020008A3020008A30200089C
:1000B000A3020008A3020008A3020008A30200088C
:1000C000A3020008A3020008A3020008A30200087C
:1000D000A3020008A3020008A3020008A30200086C
:1000E000A3020008A3020008A3020008A30200085C
:1000F000A3020008A3020008A3020008A30200084C
:10010000A302000851680008A3020008A302000827
:10011000A3020008A3020008A3020008A30200082B
:10012000A302000861100008A30200086D10000877
:10013000A30200080000000000000000A302000865
:1001400055100008A3020008A3020008A30200083B
:10015000A3020008A3020008A3020008A3020008EB
:10016000A3020008A3020008A3020008A3020008DB
:10017000A3020008A3020008000000000000000025
:10018000A3020008A302000800F002F800F06CF8D7
:100190000AA090E8000C82448344AAF10107DA45E2
:1001A00001D100F061F8AFF2090EBAE80F0013F0C8
:1001B000010F18BFFB1A43F001031847B0F9000004
:1001C000D0F900000A444FF0000C10F8013B13F086
:1001D000070408BF10F8014B1D1108BF10F8015BA0
:1001E000641E05D010F8016B641E01F8016BF9D193
:1001F00013F0080F1EBF10F8014BAD1C0C1B09D1EA
:100200006D1E58BF01F801CBFAD505E014F8016B5B
:1002100001F8016B6D1EF9D59142D6D370470000ED
:100220000023002400250026103A28BF78C1FBD8FF
:10023000520728BF30C148BF0B607047642900F0E7
:100240002581732900F04482002070471FB50BF010
:100250005DFF9DE8030000F06FFC00F093FA1FBD06
:1002600010B500F0F8FA10BD00F028FB1146FFF7BA
:10027000EDFF09F0D1FF00F02FFC03B4FFF7F0FF12
:1002800003BC00F0D7FD000009488047094800473B
:10029000FEE7FEE7FEE7FEE7FEE7FEE7FEE7FEE736
:1002A000FEE7FEE704480549054A064B7047000093
:1002B00011730008890100085810002058220020FE
:1002C000581200205812002053EA020C00F06980F6
:1002D0002DE9F04B4FF00006002B1FBFB3FA83F55A
:1002E00003FA05F424FA05F65E4012BF1643B2FA8B
:1002F00082F502FA05F4C5F120051EBF22FA05FCBD
:1003000044EA0C04203556EA044C4FEA144418BF62
:10031000641C4FF000084FF00009904271EB030C91
:1003200039D3002919BFB1FA81F701FA07F6B0FAFB
:1003300080F700FA07F6C7F120071EBF20FA07FC76
:1003400046EA0C062037B6FBF4FCA7EB0507103F86
:1003500007F01F0BCBF120062CFA06F60CFA0BFB6C
:1003600044BFB3460026202FA4BF5E464FF0000BCB
:100370005BEA060C08BF4FF0010B19EB0B0948EBC9
:100380000608ABFB027C06FB02CC0BFB03CCC01BBC
:1003900071EB0C01C1E70B46024641464846BDE8F9
:1003A000F08B13B5084318BF4FF0FF300146AFF391
:1003B0000080BDE81C4070470FB4044910B503AA83
:1003C000029800F089F910BC5DF814FBAC01002024
:1003D0002DE9F0410E460446002020622046E168E7
:1003E000884730B3252805D0D4E901219047206AF9
:1003F000401CF2E7E168204600278847050018D036
:10040000A5F14100192802D820354FF40067324683
:10041000294620462760FFF711FF40B1012804D08C
:10042000F61D26F007060836D8E7361DD6E728461B
:10043000DAE7206ABDE8F08170B50C460546012A6E
:1004400005D02878800600D5EA69002302E0012360
:1004500005E05B1C934202D2E05C0028F9D1A86958
:10046000E618C01AA861286A184428622846AFF323
:10047000008004E0D5E9012114F8010B9047B44253
:10048000F8D32846AFF3008070BD00002DE9F0419D
:100490000646002410687529314616A510D0AFF322
:1004A0000080002802DA404213A507E031688A077D
:1004B00001D512A502E0490704D511A5012401E0E8
:1004C000AFF3008000210A2206F1240709E0B0FB07
:1004D000F2FCB0FBF2F302FB1C00303078541846FB
:1004E000491C0028F3D123462A463046BDE8F04196
:1004F00000F083B8000000002D0000002B00000079
:100500002000000010B5044603E009F081FD401C06
:1005100009D014F8010B05490028F6D1BDE81040B8
:100520000A2009F075BD4FF0FF3010BDAC0100206E
:100530004FF000020429C0F0128010F0030C00F00C
:10054000DF80CCF1040CBCF1020F18BF00F8012BC6
:10055000A8BF20F8022BA1EB0C0100F0D1B85FEA94
:10056000C17C24BF00F8012B00F8012B48BF00F824
:10057000012B70470000000030B44FF0013C50F8F0
:10058000042B51F8043BCCFA52F4D51A20D1FCB913
:1005900050F8042B51F8043BCCFA52F4D51A17D179
:1005A000B4B950F8042B51F8043BCCFA52F4D51AE4
:1005B0000ED16CB950F8042B51F8043BCCFA52F42C
:1005C000D51A05D1002CDAD030BC4FF000007047AE
:1005D00029BAB1FA81F111F01801D1F1200084405B
:1005E000F2D1CA40CB4012F0FF0213F0FF0330BC3F
:1005F000D01A70477047704770472DE9F0470D4695
:1006000099469246044600F124080168880604D5FC
:10061000E06921F01001216000E00120A84201DD25
:10062000471B00E00027A1697A1902EB0900081AAC
:10063000A0612078C00602D42046AFF300800026D7
:1006400008E0D4E901211AF806009047206A401C0E
:10065000761C20624E45F4DB2078C0060AD5204681
:10066000AFF3008006E0D4E9012130209047206AF2
:10067000401C2062381EA7F10107F4DC07E0D4E932
:10068000012118F805009047206A401C2062281EAE
:10069000A5F10105F3DC2046AFF3008020780006C9
:1006A00002D50220BDE8F0870120FBE710B54369C1
:1006B00013B1AFF3008001E0FFF7BEFE012010BDD3
:1006C000127800F124010A7000224A700122EDE73D
:1006D00011684FF0FF32E9E7074B70B50D467B44D8
:1006E00000F039F80446284600F048F810B14FF001
:1006F000FF3070BD204670BD2F9900004FF0000202
:1007000000B5134694469646203922BFA0E80C5007
:10071000A0E80C50B1F12001BFF4F7AF090728BFE2
:10072000A0E80C5048BF0CC05DF804EB890028BF5E
:1007300040F8042B08BF704748BF20F8022B11F087
:10074000804F18BF00F8012B7047000001694A1C58
:1007500002610878704700B58FB0CDE90131002102
:10076000059105497944CDE9031011466846FFF724
:100770002FFE0FB000BD0000E5FFFFFF007B00F083
:100780008000704710B542485421FFF7B7FF414839
:100790005421FFF7B3FF40485421FFF7AFFF3F4913
:1007A0003B483C4A3F4B08603D490A603A49196062
:1007B000531C0365481C1065012008653B48344AFA
:1007C00039A1784400F0EAF820B9384878440A386A
:1007D00000F08BF937482F4A35A1784400F0DEF855
:1007E00020B9344878440A3800F07FF932482A4A60
:1007F0002FA1784400F0D2F820B92F4878440A3865
:1008000000F073F940232248DC000021224600F06A
:10081000A1F820B125487844543800F066F91D4805
:1008200022464023002100F095F820B12148784469
:10083000543800F05AF9184822461023002100F0DD
:1008400089F8002806D01C487844BDE81040563886
:1008500000F04BB910BD104870B5006D20F00104D8
:100860000B4800F013F90B4800F010F90A4800F0AB
:100870000DF909E0206D20F00105204600F006F991
:10088000204600F040F82C46002CF3D170BD00004B
:1008900058010020AC0100200002002000000020D0
:1008A0000400002008000020720000002EBB0000A1
:1008B000770000001DBB0000F6BA0000754600F08E
:1008C0001BF9AE4605006946534620F007008546F1
:1008D00018B020B5FFF7E6FCBDE820404FF0000659
:1008E0004FF000074FF000084FF0000BAC46ACE8AB
:1008F000C009ACE8C009ACE8C009ACE8C00921F007
:1009000007018D46704770B50446051F00F0F8F8E2
:100910000068002C14BF446870BD002C18BFAC42A6
:100920003CBF20466468F8D301680A18AA4218BF81
:10093000456003D12A6805461144016028684119C1
:10094000A1421CBF6C6070BD616869602168084489
:10095000286070BD70B5C468A50713D0650211D4B6
:10096000B2F5807F09D0B2F5007F06D0B2F5806F76
:1009700008D1012300F1240106E05D1E6FF07F46DF
:10098000B54201D3012070BD0161C361416024F40F
:1009900070611143C160002070BD00002DE9F0417D
:1009A0000C461646070047D0104600F06FF8207836
:1009B000611C61280AD0722802D077283CD102E05D
:1009C0000125002405E00225042402E0082448F261
:1009D000020511F8010B2B2806D0622809D011F866
:1009E000010C74280AD00BE045F0030544F0020422
:1009F000EFE745F0040544F00104EAE744F0100491
:100A00003846214606F052FE411C15D000213161C6
:100A100071604FF40071F560F1617061200704D5D9
:100A200030460222002100F0E5F8306D40F0010070
:100A300030653046BDE8F0810020FBE72DE9F0414C
:100A40000D460646104C206DC10704D0410804D065
:100A500020F00104F7E722460EE0542000F09BF856
:100A600007000ED0206D47F0010108435421206596
:100A70003846FFF743FE3A4629463046BDE8F04186
:100A80008CE70020D6E70000580100202DE9F04750
:100A900004464FF0FF380026C568D4E90497A8073C
:100AA00018D0204600F062F9384606F0EBFD002829
:100AB00000DA4646280502D54846FFF724FF4C21B8
:100AC0002046FFF71BFE206D20F001002065304618
:100AD000BDE8F0874046FBE710B50446AFF3008061
:100AE0002046BDE81040FFF7C8BB10B500F088F9FC
:100AF000BDE8104000F07EB9004870475402002065
:100B0000004870475C02002070477047704770478C
:100B100038B504460A4600206946AFF30080002835
:100B200008BF38BD02460099204600F090F9012028
:100B300038BD012000F0DFB9F8B5AFF300800546FD
:100B400000200C46102000BF0646A819A0420DD96F
:100B5000324669460020AFF30080070008BF00F06E
:100B6000CAF90098A04218BF0546C419FFF7C8FF8C
:100B700005600746F01D20F007004619284600F0E2
:100B80005FF9B44208BFF8BDA21B31463868BDE822
:100B9000F84000F05CB970B50646FFF7B1FF056894
:100BA00006F10B0020F00704B4429CBF002070BD8A
:100BB0002B466A68BAB11068A04210D304F108014C
:100BC00088423CBF5068586007D351681019416093
:100BD0001168091B016058601460101D70BD134638
:100BE0005268002AE7D121462846FFF791FF0028E6
:100BF000DED170BD2DE9F041044616460D46476929
:100C0000007B80072ED0384606F048FD50BB3EB32F
:100C1000012E02D0022E25D104E0204600F031F949
:100C200005441DE0384606F037FDE168002841F034
:100C30001001E16005DA204600F058F80120BDE817
:100C4000F081C9030BD56268E16A914200D8114670
:100C5000A26911442269891A814200DD08460544CF
:100C6000002D01DA0220EAE7E16A6068E268814269
:100C700006D29103E06203D522F4003141F0100264
:100C8000A6690027AE4213DCE16A814201D90B4616
:100C900000E0034603EB060C2369ACEB030CAC4508
:100CA00006DD814201D98C4600E084469C4505D191
:100CB000A760276042F02000A5620DE0AD1BE66949
:100CC000AE1B8142A66000D90846C01A281A2060CF
:100CD0005819606022F0200003490840E0600020BD
:100CE00084F84870ABE70000BFCFD7FFC16821F49C
:100CF000001141F08001C1600021816001607047F6
:100D00002DE9F74F15460C464FF0FF3B3848D768A2
:100D1000D2F814A0074209D05046A96906F0F8FCA1
:100D2000002819DB3248C0430740EF604FF000490C
:100D30006FF000484C4501D3464600E02646009936
:100D40003B465046324606F0E7FCA96920F00042D7
:100D5000B21A1144A96128B12846FFF7C7FF5846C7
:100D6000BDE8FE8FA41BE5D10020F9E770B504466D
:100D70000569C06A6168884200D80846E16821F4C4
:100D80002011E160C90312D5A84208D02246411BB8
:100D90002846FFF7B5FF10B14FF0FF3070BD0020BF
:100DA000E562C4E90150E06820F48030E060002092
:100DB00070BD10B50446C06820F02000E060A16A54
:100DC000A06988420DD02046FFF7D0FFE06820F4EC
:100DD000405040F01000E060A06AA0612069E0622D
:100DE000606044F24001E0688843E06010BD0000AC
:100DF00010000200002801D000F01CB8704700006D
:100E000010B5014602A000F05DF8012010BD000001
:100E100053494752545245443A20526564697265B9
:100E200063743A2063616E2774206F70656E3A2098
:100E30000000000001491820ABBEFEE726000200BA
:100E400000210160C0E9011070471020704703467F
:100E500040688C46002818BF88423CBF0346406863
:100E6000F8D318681844884207D00CF1030020F02A
:100E70000700001D411A521A0146081D0A60FFF7BB
:100E800042BD10B50146C268900703D0900607D551
:100E9000886A0AE000F03EF801210160881E10BD5A
:100EA0008B69486818440B69C01A91F848301BB127
:100EB00091F84910401A10BD1103FCD50028FADD45
:100EC000401E10BD70B505460C460A2000E06D1CA2
:100ED00000F018F835B128780028F8D102E0641C39
:100EE00000F010F814B120780028F8D1BDE8704067
:100EF0000A2000F007B810B500F010F8BDE8104067
:100F0000FFF778BF08B569468DF800000320ABBE37
:100F100008BD7047004870475402002010B50128F2
:100F200005D0002103A0FFF7CDFF012010BD09A1CE
:100F3000F8E7000053494752544D454D3A204F754C
:100F400074206F662068656170206D656D6F7279C1
:100F5000000000003A2048656170206D656D6F7279
:100F60007920636F727275707465640080B540F2A9
:100F70000040C4F20200102101F094FD012080BD68
:100F800070470000014640F61C60C2F2000002F00B
:100F9000E5B9000080B540F61C60C2F2000002F026
:100FA000EFF9043818BF012080BD000080B500F0C3
:100FB0000DF801281CBF012080BD40F61C60C2F264
:100FC0000000BDE8804002F041BB000080B582B067
:100FD00001208DF80700FFF7C9FF002804BF00209B
:100FE0008DF807009DF8070002B080BD80B582B083
:100FF0009C4613460A46014640F61C60C2F20000B9
:10100000CDF800C002F0AAFC002818BF012002B0F1
:1010100080BD00007047000080B582B09C4613463A
:101020000A46014640F61C60C2F20000CDF800C03E
:1010300002F0B2FD002818BF012002B080BD000000
:1010400070470000FEE7000040F60C50C2F20000BE
:1010500000F0C6BF40F63450C2F2000000F0C0BF3E
:1010600040F6BC50C2F2000001F052BA40F65C50AB
:10107000C2F2000001F04CBA704700002DE9F041C7
:1010800040F2EC24C2F2000420464FF48061FFF7E6
:101090004FFA00BF204610F8011B69B161780029A2
:1010A00004F102010CD0A07860B1E078043400288B
:1010B000F0D1601E08E000BF2046013404E000BF0C
:1010C0000C4601E003340846302140F6D078017028
:1010D0003A21C2F200082170002198F800208170A6
:1010E0004CF6CD4140F66400642ACCF6CC41C2F205
:1010F00000000BD348F21F53C5F2EB13A2FB0337DA
:101100007B0930330370012304E000BF0A2A4FF04B
:1011100000030DD3A2FB0176F708A7FB0165EE08DB
:1011200046EA8606A7EB460747F03007C754013367
:10113000A2FB0176F70807EB8707A2EB470242F014
:101140003002C718C25400227A7040F2EC22C2F278
:10115000000200BF137863B153784BB193785BB151
:10116000D3780432002BF5D1013A05783DB91EE061
:10117000013205781DB91AE002320578BDB10023AD
:10118000C6187778D418D55467B1B57867705DB153
:10119000F778A57057B135790433002DE770EFD19A
:1011A0001A4404E0621C02E0A21C00E0E21C98F871
:1011B00001300027642B17700AD348F21F52C5F282
:1011C000EB12A3FB02277A0930320270012203E0FE
:1011D0000A2B4FF000020DD3A3FB0176F708A7FB03
:1011E0000165EE0846EA8606A7EB460747F030079A
:1011F00087540132A3FB0176F70807EB8707A3EBBF
:10120000470343F030038718835400227A7040F27A
:10121000EC22C2F2000200BF137863B153784BB1E5
:1012200093785BB1D3780432002BF5D1013A05787D
:101230003DB91EE0013205781DB91AE00232057889
:10124000BDB10023C6187778D418D55467B1B578E6
:1012500067705DB1F778A57057B135790433002D0B
:10126000E770EFD11A4404E0621C02E0A21C00E027
:10127000E21C98F802300027642B17700AD348F25A
:101280001F52C5F2EB12A3FB02277A09303202701B
:10129000012203E00A2B4FF000020DD3A3FB0176DD
:1012A000F708A7FB0165EE0846EA8606A7EB4607A6
:1012B00047F0300787540132A3FB0176F70807EBAC
:1012C0008707A3EB470343F03003871883540022BA
:1012D0007A7040F2EC22C2F2000200BF137863B1D0
:1012E00053784BB193785BB1D3780432002BF5D1AE
:1012F000013A05783DB91EE0013205781DB91AE0C2
:1013000002320578BDB10023C6187778D418D554B9
:1013100067B1B57867705DB1F778A57057B1357969
:101320000433002DE770EFD11A4404E0621C02E0A0
:10133000A21C00E0E21C98F803300027642B177011
:101340000AD348F21F52C5F2EB12A3FB02277A0917
:1013500030320270012203E00A2B4FF000020DD35D
:10136000A3FB0176F708A7FB0165EE0846EA8606AF
:10137000A7EB460747F0300787540132A3FB0176FD
:10138000F70807EB8707A3EB470343F03003871801
:10139000835400227A7040F2EC22C2F2000200BFB5
:1013A000137863B153784BB193785BB1D37804323F
:1013B000002BF5D1013A05783DB91EE001320578E0
:1013C0001DB91AE002320578BDB10023C61877783E
:1013D000D418D55467B1B57867705DB1F778A5704A
:1013E00057B135790433002DE770EFD11A4404E08A
:1013F000621C02E0A21C00E0E21C98F80430002706
:10140000642B17700AD348F21F52C5F2EB12A3FBEC
:1014100002277A0930320270012203E00A2B4FF0D2
:1014200000020DD3A3FB0176F708A7FB0165EE08C8
:1014300046EA8606A7EB460747F030078754013295
:10144000A3FB0117F90801EB8101A3EB410141F076
:101450003001831881540021597040F2EC21C2F20E
:10146000000100BF0A7862B14A784AB18A785AB15D
:10147000CA780431002AF5D1013905783DB91EE05A
:10148000013105781DB91AE002310578BDB100229D
:10149000861877788B188D5467B1B5785F705DB119
:1014A000F7789D7057B135790432002DDF70EFD198
:1014B000114404E0591C02E0991C00E0D91C40F6DC
:1014C0006404002098ED020AC2F20004087020466D
:1014D00008F04AFB40F2EC20C2F20000017861B152
:1014E000417849B1817859B1C17804300029F5D1EA
:1014F000013823783BB91EE0013023781BB91AE08C
:1015000002302378BBB10021661877784218435423
:1015100067B1B37857705BB1F778937057B133798F
:101520000431002BD770EFD1084404E0501C02E0D6
:10153000901C00E0D01C40F66404002198ED040AE1
:10154000C2F200040170204608F00EFB40F2EC20CD
:10155000C2F20000017861B1417849B1817859B196
:10156000C17804300029F5D1013823783BB91EE059
:10157000013023781BB91AE002302378BBB1002177
:10158000661877784218435467B1B37857705BB1E7
:10159000F778937057B133790431002BD770EFD1BE
:1015A000084404E0501C02E0901C00E0D01C40F60F
:1015B0006404002198ED050AC2F20004017020467F
:1015C00008F0D2FA40F2EC20C2F20000017861B1DA
:1015D000417849B1817859B1C17804300029F5D1F9
:1015E000013823783BB91EE0013023781BB91AE09B
:1015F00002302378BBB10021661877784218435433
:1016000067B1B37857705BB1F778937057B133799E
:101610000431002BD770EFD1084404E0501C02E0E5
:10162000901C00E0D01C40F66404002198ED060AEE
:10163000C2F200040170204608F096FA40F2EC2055
:10164000C2F20000017861B1417849B1817859B1A5
:10165000C17804300029F5D1013823783BB91EE068
:10166000013023781BB91AE002302378BBB1002186
:10167000661877784218435467B1B37857705BB1F6
:10168000F778937057B133790431002BD770EFD1CD
:10169000084404E0501C02E0901C00E0D01C40F61E
:1016A0006404002198ED070AC2F20004017020468C
:1016B00008F05AFA40F2EC20C2F20000017861B161
:1016C000417849B1817859B1C17804300029F5D108
:1016D000013823783BB91EE0013023781BB91AE0AA
:1016E00002302378BBB10021661877784218435442
:1016F00067B1B37857705BB1F778937057B13379AE
:101700000431002BD770EFD1084404E0501C02E0F4
:10171000901C00E0D01C40F66404002198ED080AFB
:10172000C2F200040170204608F01EFA40F2EC20DC
:10173000C2F20000017861B1417849B1817859B1B4
:10174000C17804300029F5D1013823783BB91EE077
:10175000013023781BB91AE002302378BBB1002195
:10176000661877784218435467B1B37857705BB105
:10177000F778937057B133790431002BD770EFD1DC
:10178000084404E0501C02E0901C00E0D01C40F62D
:101790006404002198ED090AC2F200040170204699
:1017A00008F0E2F940F2EC20C2F20000017861B1E9
:1017B000417849B1817859B1C17804300029F5D117
:1017C000013823783BB91EE0013023781BB91AE0B9
:1017D00002302378BBB1002167187E784218435449
:1017E00066B1BB7856705BB1FE78937056B13B79A9
:1017F0000431002BD670EFD1084404E0501C02E005
:10180000901C00E0D01C0021017040F2EC20C2F2DC
:10181000000000BF014611F8012B6AB14278002A8E
:1018200000F102020CD0817861B1C1780430002946
:10183000F0D1411E08E000BF0146013004E000BFC6
:10184000104601E0033011460D220A700A22027090
:1018500000208870BDE8F081EFF3108072B600BF01
:10186000FEE7000070B54FF2E470C0F60000FEF72E
:1018700049FE40F230110020C2F200010A5C5AB168
:101880000A18537853B1937853B1D2780430002AB0
:10189000F4D10844013804E0084402E0501C00E0A0
:1018A000901C40F2F861C2F200010E78BEB1002235
:1018B0008D186C788318865464B1AE785C705EB114
:1018C000EC789E7054B12E790432002EDC70EFD18A
:1018D000104404E0581C02E0981C00E0D81C47F2B9
:1018E0002E41C7F2784101600021017140F6840069
:1018F00040F23011C2F20000C2F200010A2207F0E9
:101900006BFA40F68006C2F20006307030B1014634
:1019100020A0FEF751FD307870BD00BF4FF28D70F2
:10192000C0F60000FEF7EEFD40F6840540F6B42454
:10193000C2F2000540F21401C2F20004C2F200013A
:1019400028469F22234607F0A7FD40F2B3013070DE
:10195000C2F2000128467722234607F09DFD307031
:1019600040B101464FF25870C0F60000FEF724FD6A
:10197000307870BD21684FF2FF60C0F60000FEF7BE
:101980001BFD40F65E00C2F20000012101703078BC
:1019900070BD00BF6F70656E2046696C654E616DED
:1019A00065206572726F722121212025640D0A0065
:1019B00070B584B040F65F05C2F2000528780128B2
:1019C00047D041F24B06C2F20006307800F00F001B
:1019D0000F283ED1FFF752FB00241020CDE9004034
:1019E00022A2302050214FF6FF73029403F0CAFD6B
:1019F00040F65E012878C2F20001097880F0FF000D
:101A0000014223D01FA0FEF77DFD40F6B42440F62E
:101A1000840040F2EC21C2F20004C2F20000C2F2E3
:101A200000014FF48062234607F036FD40F6800146
:101A3000C2F20001087078B115A0FEF7BDFC0120CC
:101A4000012409F005FE2C7004B070BD1EA0FEF745
:101A5000B3FC04B070BD00BF216813A0FEF7ACFC5E
:101A6000307800F0F000307004B070BD73656E64C3
:101A7000206461746120746F2073642063617264F8
:101A800000000000777269746520646174610D0064
:101A9000636172646174612077726974652066693C
:101AA0006C65206661696C006361726461746120B9
:101AB00077726974652066696C6520737563636508
:101AC00073733A2564000000746865726520697359
:101AD00020736F6D7468696E672077726F6E672010
:101AE00077697468204641540000000080B540F6D4
:101AF0008400C2F2000006F063FD4FF65301C0F609
:101B0000000100200122BDE8804007F011B900006B
:101B100080B540F67003C2F200039A7B012A84BFAD
:101B2000012080BD93F80EC08646002003F80C000B
:101B30009A7B03EB8202C2F804E09A7B1A4410738A
:101B400093F80EC00CF101029A730CF130020A7086
:101B500042F63A72A1F80120C87080BDB0B582B0DB
:101B600040F6B8204FF65301C2F20000C0F6000163
:101B7000012207F0DDF840F68005C2F2000528706A
:101B80004FF2A170C0F60000FEF7BCFC2978E9B165
:101B90000D2921D14FF60600C0F60000FEF7B2FC79
:101BA0004FF653004FF40074C0F6000000214FF4CC
:101BB00080520023009406F047FD287090B120A0C9
:101BC000FEF7FAFB287802B0B0BD00BF12A0FEF706
:101BD000F3FB287802B0B0BD29A0FEF7EDFB287812
:101BE00002B0B0BD19A0FEF78DFC4FF65304C0F64D
:101BF000000400202146012207F09AF8287040F6E0
:101C0000B820C2F200002146012207F091F82870A6
:101C1000287802B0B0BD00BF66696C652073797327
:101C200074656D2068617320616C726561647920F0
:101C30006265656E20666F726D6174746564000024
:101C40006D6F756E74206572726F720054686520D6
:101C500053442063617264207375636365737366B4
:101C6000756C6C7920666F726D6174746564207434
:101C700068652066696C652073797374656D0D0005
:101C80006D6F756E74206572726F723A20256420D4
:101C90000D0A0000B0B55AA0FEF734FC40F68400EF
:101CA0004FF65601C2F20000C0F60001012207F013
:101CB00093F840F68005C2F20005287020B1014675
:101CC0005AA0FEF779FB2EE05EA0FEF71BFC40F663
:101CD000B42440F6840040F2F671C2F20004C2F26D
:101CE0000000C2F200010422234607F069FA2870BE
:101CF00010B1014659A00EE021684FF21E70C0F6E7
:101D00000000FEF759FB4FF2737040F2F671C0F617
:101D10000000C2F20001FEF74FFB40F68400C2F261
:101D2000000006F04DFC40F2F670C2F2000083782D
:101D30000178427840F2F860C2F20000382B01705E
:101D4000427005D801338370D2B23A2A07D20AE032
:101D50003023013283704270D2B23A2A03D3302248
:101D60000131427001700021C1704FF2E470C0F681
:101D70000000FEF7C7FB40F684004FF65601C2F2A2
:101D80000000C0F600010A2207F026F8287048B1CA
:101D900001464FF23B70C0F60000FEF70DFB2878BD
:101DA000B0BD00BF4FF28D70C0F60000FEF7AAFB79
:101DB00040F6B42440F6840040F2F861C2F2000418
:101DC000C2F20000C2F200010422234607F064FBC5
:101DD000287028B101464FF25870C0F6000004E0A8
:101DE00021684FF2FF60C0F60000FEF7E5FA40F60A
:101DF0008400C2F2000006F0E3FB2878B0BD00BF0B
:101E00000D0A2A2A2A2A2A205265616420646174F4
:101E1000612066726F6D20746578742066696C65E8
:101E200073202A2A2A2A2A0D000000006F70656E8E
:101E30002066696C65206572726F723A2025640DA8
:101E40000A0000006F70656E2066696C652073750E
:101E5000636573732121210D0000000072656164C8
:101E60002046696C654E616D65206572726F7221E6
:101E700021212025640D0A00B0B5FFF70BFF40F6C5
:101E80005F04C2F200042178002818BF0120084333
:101E900004D00120012509F0DBFB2570FFF7E2FCEF
:101EA0002178002818BF0120084308BFB0BD0120D9
:101EB000012509F0CDFB2570B0BD00007047000082
:101EC00010B590F82040013C012C71D8D0F800C02A
:101ED000002977D0DCF81040A40777D00CEB011C68
:101EE000DCF8B0410CF5D87E14F004049460DCF802
:101EF000B04119BFE4085460640D1460DEF800407E
:101F0000002904F00204D460DCF8B44104F00F04AA
:101F10001461DCF8B441C4F307249461DCF8B441E3
:101F20004FEA14445461DCF8B8211A70026802EBDD
:101F30000112D2F8B8214FEA12225A70026802EB5D
:101F40000112D2F8B8214FEA12429A70026802EBED
:101F50000112D2F8B8214FEA1262DA70026802EB7D
:101F60000112D2F8BC211A71026802EB0112D2F8F8
:101F7000BC214FEA12225A71026802EB0112D2F818
:101F8000BC214FEA12429A71026802EB0112D2F8A8
:101F9000BC214FEA1262DA71006814BF00F110012F
:101FA00000F10C01002020220B681A430A6010BDCA
:101FB00000F1240101204FF480220B681A430A60CB
:101FC00010BD00BFDCF80C40A40787D100F124014C
:101FD00001204FF400120B681A430A6010BD000084
:101FE0002DE9F04F81B0044600684669D0F80490AE
:101FF0008768D0F80CB0D0F810A0D0F81880F1079E
:1020000004D1002530071DD424E000BFF90710D00B
:102010000121BA07816009D4780700F1AF80380741
:1020200000F1B680204600F053FA02E0204600F0AE
:1020300051FA0025F80500F18780F80300F1B1801E
:10204000300707D51BF0100004D0206845F4007558
:102050001021C160700708D51BF0080005D020686A
:102060000821C160204600F0EFF9B00706D52068CE
:10207000C068800702D0204600F0E8F9700607D556
:102080001AF0100004D0206845F480651021016129
:10209000B00608D51AF0080005D0206808210161B3
:1020A000204600F00FFAF00606D520680069800788
:1020B00002D0204600F008FAB00308D519F010004D
:1020C00005D0206810214160204600F0FFF9F003A0
:1020D00008D519F0080005D0206808214160204685
:1020E00000F002FA300440F19B805FEA497040F151
:1020F000948006F4807008EA102028435FEA887113
:10210000014648BF41F00201B20558BF01465FEAEF
:1021100048700D4648BF45F00405700558BF0D4690
:10212000300540F17A8018F0700000F076801038A9
:10213000000905286CD8DFE800F003595D61656986
:1021400045F0080564E000BF20684FF48071BA05CF
:1021500081600BD4780515D438051DD4204600F0D5
:10216000BBF9F8037FF56CAF1BE000BF204600F021
:10217000B5F9F8037FF564AF13E000BF4FF40065D5
:1021800058E700BF05F50055F8037FF559AF08E0A3
:102190004FF480554EE700BF05F58045F8037FF505
:1021A0004FAF20684FF48031BA0381600AD47803BE
:1021B00010D4380314D4204600F092F930073FF5CC
:1021C00041AF47E7204600F08DF930073FF53AAFC1
:1021D00040E700BF05F5004530073FF533AF39E76D
:1021E00005F5803530073FF52DAF33E745F0100595
:1021F0000EE000BF45F020050AE000BF45F04005B5
:1022000006E000BF45F0800502E000BF45F48075A0
:102210002068816921F0700181612068042141609A
:1022200055B1606A40EA05012046616201B0BDE82F
:10223000F04FFFF743BE00BF01B0BDE8F08F0000D4
:10224000B0B5C8B1044690F8200010B9204600F09F
:1022500071F82068016841F00101016000F02EFC76
:10226000054600BF20684168C90707D100F026FC79
:10227000401B0B28F6D312E00120B0BD016821F00D
:102280000201016000F01AFC054600BF20684168A9
:1022900089070DD500F012FC401B0B28F6D3606AAD
:1022A000052140F400306062012084F82010B0BDA8
:1022B000217E0268012922F0800208BF803202607C
:1022C000617E0268012922F0400208BF40320260AC
:1022D000A17E0268012922F0200208BF203202609C
:1022E000E17E0268012922F0100218BF103202605C
:1022F000217F0268012922F0080208BF083202602B
:10230000617F0268012922F0040208BF04320260E2
:10231000D4E901C2D4E9033561691A432A43114360
:10232000ACF101021143C16100200121606284F817
:102330002010B0BD10B586B0006846F60002C4F2A9
:10234000000200219042CDE90411CDE90211019172
:102350002ED046F20041C4F20001884272D140F210
:102360002071C2F200010A6843F64000C4F2020084
:10237000531C0B6052B900210091016841F00071BB
:102380000160016801F00071009100990021009145
:1023900050F8101C142441F0020140F8101C50F8B1
:1023A000100C00F00200009000984FF4407031E0F3
:1023B00043F64000C4F202000091016841F08061E0
:1023C0000160016801F080610091009940F2207184
:1023D000C2F200010A68531C0B6052B9002100913F
:1023E000016841F000710160016801F00071009125
:1023F00000990021009150F8101C402441F0020186
:1024000040F8101C50F8100C00F0020000900098EA
:102410004FF44050019002200290002003900320CE
:1024200004900920059040F20040C4F2020001A986
:1024300000F064FA20460021002200F0C3FB204691
:1024400000F0ACFB06B010BD7047000010B582B0C4
:1024500040F63451C2F20001884207D040F60C51D8
:10246000C2F20001884217D002B010BD40F2B4247D
:1024700040F63450C2F20004C2F200006B46002164
:102480002246FFF71DFD0028EED12068694605F0C1
:1024900097FA02B010BD00BF40F2B424C2F20004AB
:1024A00040F60C5004F11C02C2F200006B46002101
:1024B000FFF706FD0028D7D1206A694605F040FBEA
:1024C00002B010BD70470000704700007047000068
:1024D0007047000070470000704700007047000020
:1024E00070470000704700007047000090F83510FA
:1024F000022909D1052180F835100068016821F012
:102500000101016000207047802141650120704772
:10251000F0B581B004460020009040F22C10C2F2C9
:1025200000000268D4E9166048F2B5133768082144
:10253000C1F64E3381403942A2FB03250CD02268FC
:1025400013685B0708D5136823F004031360B160B8
:10255000616D41F00101616501218140394208D07E
:1025600022685269120604D5B160616D41F0020122
:10257000616504218140394208D0226812689207BF
:1025800004D5B160616D41F00401616510218140A5
:10259000394217D020680268120713D5B16002686B
:1025A0000168520308D4C90508D4016821F0080164
:1025B0000160216C21B905E008033FD4216C09B109
:1025C00020468847E16D202000FA01F23A4241D0CE
:1025D00020680368DB063DD5B26094F835300268A8
:1025E000052B1BD122F016020260426922F0800204
:1025F0004261226C0AB9A26C1AB1026822F0080288
:1026000002603F208840B060012084F83500216DD1
:102610000020002984F8340052D157E001685203A9
:1026200010D4C90512D4016821F010010160012005
:1026300084F83500002084F8340007E0A16C0029FC
:10264000BED1BFE7080301D4616C00E0E16B09B1C2
:1026500020468847606DC8B3606DC0072ED0052046
:1026600084F835002068A90A026822F0010202609D
:10267000009A01328A4200921AD80268D20717D013
:10268000009A01328A42009212D80268D2070FD013
:10269000009A01328A4200920AD80268D20707D013
:1026A000009A01328A42009202D80268D207DFD132
:1026B000012084F83500002084F83400E16C29B151
:1026C000204601B0BDE8F040084700BF01B0F0BDB2
:1026D0002DE9F041044600F0F1F9ECB10546022085
:1026E00084F835000020216884F83400086820F060
:1026F0000100086021680868C00711D000F0DEF909
:10270000401B0528F6D9032520230320636584F8A0
:102710003550BDE8F08100BF0120BDE8F08100BF69
:10272000086848F23F02CFF21002D4E9013500EA0E
:10273000020C04F10C0898E8C10143EA0C032B4396
:102740001843D4E9072E304338431043626A40EA05
:102750000E00042A40EA08031CD1206BD4E90A2E9B
:1027600040EA0E00184308604869BEF1000F20F0EF
:10277000030040EA020040F0040C11D0B8F5005FFD
:1027800036D0B8F1000F45D1022A46D0012A3BD0FD
:1027900032B942E00B60486920F0070040EA020CC1
:1027A00001F0F8004AF6AB221038CAF6AA22A0FBC4
:1027B00002231A094FF2F763C0F600039A5C40F255
:1027C000FF335F284FF03F00C1F814C021EA030136
:1027D00000FA02F088BF0431C4E9161288600023B1
:1027E00001250020636584F83550BDE8F08100BF05
:1027F000032AD5D8012540230120DFE802F0030E8B
:10280000030500BF82E700BFAEF1C070B0FA80F0F0
:10281000400904E0032A04D3C2D1CEF300600028AB
:10282000BED0012540230120636584F83550BDE802
:10283000F081000070B590F834C0BCF1010F46D0B3
:102840004FF0010C80F834C0D0F858E090F835C053
:10285000BCF1010F38D14FF0020C80F835C04FF0B9
:10286000000CC0F854C0D0F800C08468056CC06D7E
:10287000DCF80060402C26F48026CCF80060CCF810
:1028800004300B4604BF13460A463F2101FA00F00C
:10289000CCF80830CCF80C20CEF80800DCF80000AA
:1028A00040F01600CCF800002DB1DCF8000040F03C
:1028B0000800CCF80000DCF8000040F00100CCF883
:1028C0000000002070BD00BF002180F834100220FD
:1028D00070BD0000B0B5044600F0F0F8054640F2C7
:1028E0000C00C2F200000078611C18BF044400BF55
:1028F00000F0E4F8401BA042FAD3B0BD2DE9F04F40
:1029000082B000F13E4241F6004502F1FF77C4F289
:102910000205082243F6004E4FEAB726A84208BF38
:102920000722C4F2010E072E38BF4FEAB722012555
:10293000002600274FF00008009208E008F1010887
:102940000437B8F1100F06F1020600F0A7800C68FA
:1029500005FA08F914EA090FF0D0D1F804B00322FF
:102960000BF0030CACF10104B240012C6FEA020A37
:1029700010D88268CC6802EA0A02B440224382601E
:102980004268CBF3001422EA090204FA08F4224355
:10299000426005E0BCF1030F02D14FF0030C20E0D0
:1029A000C2688C6802EA0A02B4402243BCF1020FFA
:1029B000C26016D16FF0030202EA58020244D2F854
:1029C00020C007F01C050F230C69AB402CEA030361
:1029D00004FA05F52B431362D1F804B001250BF07E
:1029E000030C02680CFA06F302EA0A021A431BF40B
:1029F000403F0260A2D0002243F644030192C4F299
:102A000002031A684FF6084C42F480421A601A68B2
:102A1000CFF6FF7C02F480420192019A28F0030273
:102A2000724452F80C3007F00C050F24AC40A3435D
:102A3000009C04FA05F52B4342F80C30DEF8082020
:102A40004B6842EA090543F60C4CDC0258BF22EA07
:102A50000905CEF80850C4F2010CDCF800209C02F5
:102A600042EA090558BF22EA0905CCF80050DEF811
:102A700004209C0342EA090558BF22EA0905CEF862
:102A80000450DEF80020DB0342EA090558BF22EAC1
:102A90000905CEF80050012550E700BF02B0BDE89F
:102AA000F08F00000069084018BF01207047000047
:102AB000002A08BF090481617047000041F25000FC
:102AC000C2F200000068704740F20C0041F2500171
:102AD000C2F20000C2F2000100780A6810440860E7
:102AE0007047000080B543F60040C4F20200016860
:102AF00041F400710160016841F480610160016886
:102B000041F480710160032000F088F80F2000F08C
:102B100005F800F027F8002080BD000070B540F2F5
:102B20000C06C2F2000640F22C113278C2F200010B
:102B30004FF47A730968B3FBF2F20446B1FBF2F189
:102B4000084601F06DFA0F2C4FF0010508D838B98E
:102B50004FF0FF3021460022002500F033F874606A
:102B6000284670BD82B0002043F640010190C4F2B7
:102B700002014A6842F480424A604A6802F4804294
:102B80000192019A0090086840F08050086008683F
:102B900000F080500090009802B07047002848BFB5
:102BA0007047C1B200F01F00012202FA00F04EF29D
:102BB0000012CEF2000242EAD10121F003010860C6
:102BC0007047000010B54EF60C5CCEF2000CDCF83D
:102BD0000030C3F3022E8EF00704042C28BF042417
:102BE000BEF103034FF0FF3E0EFA04F438BF00239A
:102BF000A14399400EFA03F39A43114300F00F02E8
:102C000000F160430901043A03F56443624400287B
:102C100048BF02F10C03197010BD00004EF60C51B4
:102C2000CEF200010A684FF6FF031A4060F30A2251
:102C300042F0806040F0FD70086070472DE9F0417F
:102C4000002800F08B8043F60808C4F2020804460E
:102C5000D8F8F8030D4600F00700884207D288F83C
:102C6000F853D8F8F80300F00700A84276D120689E
:102C7000810717D5410705D5D8F8001041F4E05178
:102C8000C8F80010010705D5D8F8001041F46041DC
:102C9000C8F80010D8F80010A26821F0F001114324
:102CA000C8F80010C0073FD1D8F8F80300F00700BB
:102CB000A84207D988F8F853D8F8F80300F00700BD
:102CC000A8424BD12068410707D5D8F80010E26828
:102CD00021F4E0511143C8F80010000708D5D8F8D6
:102CE0000000216920F4604040EAC100C8F80000FB
:102CF00000F07CF8D8F800104CF23012C1F3031148
:102D0000C0F60002515C40F22C1220FA01F140F2B0
:102D10001000C2F200000068C2F200021160FFF76A
:102D2000FDFE0020BDE8F0816068811E022907D207
:102D300058F8081C89015CBF0120BDE8F08111E052
:102D4000012807D158F8081C89035CBF0120BDE8A1
:102D5000F08107E058F8081C890703D40120BDE87A
:102D6000F08100BFD8F8001021F003010843C8F833
:102D70000000FFF7A3FE064641F28837D8F80000AE
:102D8000616800F00C00B0EB810F8DD0FFF796FE6C
:102D9000801BB842F2D90320BDE8F08140F22C102C
:102DA00043F60801C2F20000C4F20201006809689B
:102DB0004CF24012C1F38221C0F60002515CC840BF
:102DC0007047000040F22C1043F60801C2F20000E8
:102DD000C4F20201006809684CF24012C1F34231AA
:102DE000C0F60002515CC8407047000010B543F6C1
:102DF0000404C4F20204606800F00C0142F20040D6
:102E00000829C0F2F40007D0042918BF10BD41F210
:102E10000020C0F27A0010BD216801F03F02216855
:102E200023684902C3F3881106D4A1FB00010023E3
:102E3000FDF74AFA07E000BF41F20020C0F27A0035
:102E40004843B0FBF2F021680222C1F3014102EBDA
:102E50004101B0FBF1F010BD2DE9F04182B0002836
:102E600068D00446007843F60006C007C4F20206A4
:102E70000BD0B06800F00C00042840F09F80306850
:102E8000800302D56068002854D0207880071AD5C6
:102E9000B06810F00C0F09D0B06800F00C000828E2
:102EA00040F0A6807068400200F1A2803068800780
:102EB00002D5E06801283DD13068216920F0F80092
:102EC00040EAC10030602078000737D420784007FE
:102ED0004CD4A56955B3B06800F00C00082840F048
:102EE000BB80012D26D07068E16900F480028A421F
:102EF00020D1216A00F03F028A421BD147F6C071FF
:102F0000626A0140B1EB821F14D1A16A4FF6FF73D0
:102F1000C903994300F44032A1F580318A4209D1B6
:102F2000E16A00F07060B0EB016F03D1002002B0E5
:102F3000BDE8F081012002B0BDE8F08160690028A1
:102F400040F20000C4F2472076D00121C0F8801E74
:102F5000FFF7B4FD054600BF706F8007B6D4FFF7DA
:102F6000ADFD401B0228F7D9DDE000BF306C10F04A
:102F700080580AD100200190306C40F080503064BD
:102F8000306C00F080500190019847F20007C4F2C5
:102F900000073868C00541D4386840F48070386054
:102FA000FFF78CFD054600BF3868C00536D4FFF733
:102FB00085FD401B0228F7D9B5E000BFB06800F0DE
:102FC0000C00082803D1706840023FF558AF6068D4
:102FD000B0F5803F07D0B0F5A02F40F08D8030686D
:102FE00040F480203060306840F4803030608DE004
:102FF000E068002852D00020C4F24720012101607F
:10300000FFF75CFD054600BF306880073FF554AF11
:10301000FFF754FD401B0228F6D984E0A068012880
:1030200005D005284ED1306F40F004003067306F76
:1030300040F0010030674FE00021C0F8801EFFF72C
:103040003DFD0546706F80077FF540AFFFF736FD09
:10305000401B0228F6D966E00027C4F2472700206B
:103060003866FFF72BFD022D05460BD13068800135
:103070005ED5FFF723FD401B02284FF00300F5D972
:1030800055E700BF306880017FF550AFFFF716FDB0
:10309000401B02284FF00300F4D948E70020C4F297
:1030A000472000210160FFF709FD054630688007D1
:1030B0007FF509AFFFF702FD401B02284FF0030028
:1030C000F4D934E7316F002821F001013167316F05
:1030D00021F0040131674DD0FFF7F0FC054641F2C5
:1030E000883700BF306F800756D4FFF7E7FC401BDE
:1030F000B842F7D917E000BF3168002821F48031C9
:103100003160316821F4802131604FD0FFF7D6FC67
:10311000054600BF306880033FF5B7AEFFF7CEFC31
:10312000401B6428F6D9032002B0BDE8F08100BF3F
:1031300004F11C052FCD084340EA8210D9034FF655
:10314000FF729143A1F5803140EA05600843706049
:1031500001203866FFF7B2FC044600BF30688001EA
:103160003FF5E4AEFFF7AAFC001B02284FF0030076
:10317000F4D9DCE6FFF7A2FC054641F2883700BF30
:10318000306F800708D5FFF799FC401BB8424FF01D
:103190000300F5D9CBE600BFB8F1000F7FF499AE7C
:1031A000306C20F08050306493E600BFFFF786FC5F
:1031B000054600BF306880037FF567AEFFF77EFCF1
:1031C000401B64284FF00300F4D9B0E6FDF7D8BEE9
:1031D0007047000080B5D0E9193ED0F844C09A0F7E
:1031E0000A70C3F383624A70C3F301628A701A0CD7
:1031F000CA701A0A0A714FEA1E524B71CA80CEF386
:1032000003420A72CEF3C0324A72CEF380328A721F
:10321000CEF34032CA72CEF300320A730022BCF100
:10322000010F4A7336D0BCF1000F40F0878040F6A2
:10323000FC72C36E02EA8E0242EA93720A61C26EA7
:10324000C2F3C2630B75C2F302634B75C2F3425300
:103250008B75C2F38243CB75C2F3C2330B76D1F8C0
:1032600010C00B7E0CF1010C03F0070302330CFAC3
:1032700003FCC0F854C00B7A03F00F0E012303FACD
:103280000EF383655B0A03FB0CF3C3654FF4007315
:1032900012E000BFB0F86E200EF03F0342EA034296
:1032A0000A610A694FF4806303EB82224FF40073D2
:1032B000C0E91523C265C26E0366C2F380334B7644
:1032C000C2F3C61302F07F028B76CA76006FC20F7C
:1032D0000A77C0F341724A77C0F382628A77C0F3FB
:1032E0008352CA77C0F3405281F820200022C0F3F5
:1032F000004381F8212081F82230C0F3C03381F8E7
:103300002330C0F3803381F82430C0F3403381F898
:103310002530C0F3003381F82630C0F3812381F8D3
:103320002730C0F30123C0B2400881F8283081F86B
:103330002900012081F82A00104680BD016840F272
:10334000FF52C0F240028A63816B012241F080513A
:10335000816380F83420104680BD000080B500F104
:10336000440E9EE80C5081E80C10426DC1E903E266
:10337000D0E91623C1E90523026E0020CA6180BD91
:1033800010B5016D04460068090403F031FC28B152
:10339000A16B0843A063002010BD00BF206800217E
:1033A00003F052FAC0F3432010BD0000F0B581B025
:1033B00004460068256B416B05F0080609042BD50F
:1033C00056B3E56A2DB3A66A03F064FA306020684C
:1033D00003F060FA7060206803F05CFAB060206867
:1033E00003F058FAF060206803F054FA3061206866
:1033F00003F050FA7061206803F04CFAB061206865
:1034000003F048FAF06106F12000A5F12001C4E9BB
:103410000A0101B0F0BD00BF416BC90540D4416B4A
:10342000490465D5002E63D0666A002EF1D0276A64
:103430006D4639680091294603F030FA79682068B2
:103440000091294603F02AFAB968206800912946BC
:1034500003F024FAF96820680091294603F01EFA67
:10346000396920680091294603F018FA79692068C3
:103470000091294603F012FAB969206800912946A3
:1034800003F00CFAF869294600902068203703F011
:1034900005FAA6F12000C4E9087001B0F0BD00BF34
:1034A0004FF480718163C16B4CF23A329143C16336
:1034B000C16A002E21F00101C16259D12906A8D5A7
:1034C000A90608D503F006FC28B1A16B0843A06348
:1034D0002046FFF77DFEA8079BD12068C16A21F036
:1034E0000801C1620121204684F834105EE000BF6B
:1034F000416B40F23A2211423FF48BAF416B890796
:103500005AD4416B09075ED4416B890662D4416B82
:10351000C90666D4416B890503D5A16B41F008014A
:10352000A16340F23A718163C16B40F23A32914338
:10353000C16303F0CFFBA16B002E40EA0100A06342
:1035400058D128067FF565AF15F0300F5ED0E06BDF
:1035500046F6F961C0F600010165FEF7C7FF0028D5
:103560003FF457AFE06B01B0BDE8F04003F0C4BCDE
:1035700015F0220F08D003F0ADFB28B1A16B084372
:10358000A0632046FFF724FE206840F23A51816391
:10359000012084F834000020A9072063204605D0CC
:1035A00001B0BDE8F04000F0F3BA00BF01B0BDE8E3
:1035B000F04000F0EFBA00BFA16B41F00201A1633F
:1035C000416B0907A0D5A16B41F00801A163416BD4
:1035D00089069CD5A16B41F02001A163416BC9060E
:1035E00098D5A16B41F01001A163416B890594D47A
:1035F00097E700BF0120002184F8340020462163B2
:1036000001B0BDE8F040FFF7E3BD00BFA80711D04F
:10361000206C46F68D61C0F600010165FEF766FF7D
:1036200000283FF4F6AE206C01B0BDE8F04003F096
:103630002DBC00BF00210120A16384F83400204686
:10364000216301B0BDE8F040FFF7C0BD10B5D8B1AF
:10365000044690F8340020B900202077204600F07E
:1036600023F9032084F83400204600F00FF80028E6
:103670004FF0010018BF10BD0021A163216384F841
:103680003400002010BD00BF012010BDF0B58FB088
:1036900004460068762100260291002100220023C2
:1036A0000096019603F0DAF84FF0010510B12846B4
:1036B0000FB0F0BD48F2A007C4F225273E60206895
:1036C00003F0E2F802203D60FFF704F90496206859
:1036D00003F04AF940B1012584F83450A16B084346
:1036E000A06328460FB0F0BD206803F06DF958B113
:1036F00020680021A16403F037F90028EBD1A06C09
:10370000012803D00AE000BF0120A0642068002146
:1037100003F0CAF810B14FF08050DCE704984FF680
:10372000FE76B0421ED80025CCF21015206800218C
:1037300003F0BAF80028CED12068294603F0C0F87B
:103740000028E8D12068002103F07EF804990131B7
:1037500004910499B14202D8B0F1FF3FE6DCC0F316
:10376000807000E0002004994FF6FF72914203D36D
:103770004FF08070AFE700BF606420680125ADF8AE
:103780000E5003F05DF888B1606C032812D12068F8
:10379000042103F059F8000DE06404A92046FFF766
:1037A00019FD002854D04FF0805095E74FF080600D
:1037B00092E700BF206803F07FF900287FF48CAF08
:1037C0002068002103F040F8216860670846042162
:1037D00003F03AF82168A0670846082103F034F89E
:1037E0002168E06708460C2103F02EF8616CC4F8EC
:1037F00080000329CBD020680DF10E0103F004FAFC
:1038000000287FF469AF606C0328C0D0BDF80E10AB
:1038100020682165090403F09DF900287FF45CAF5E
:103820002068002103F010F8216860660846042132
:1038300003F00AF82168A0660846082103F004F89E
:103840002168E06608460C2102F0FEFF20679EE733
:10385000216D20680A04002303F022F900287FF478
:103860003BAF94E88F00D4E90565CDE90076029579
:1038700002F0F4FF20684FF4007103F069F878B1AA
:10388000216840F2FF52C0F240028A63A16B012519
:103890000843A06384F8345028460FB0F0BD00BF41
:1038A000002528460FB0F0BD2DE9F04385B0006833
:1038B00042F60045C4F20105A84203D005B0BDE8B8
:1038C000F08300BF002643F630000096C4F20200E9
:1038D00041696C4641F40061416141694FF0020861
:1038E00001F4006100910099009601684FF003090E
:1038F00041F00401016001680C2701F0040100910E
:1039000000990096016841F00801016000682146B5
:1039100000F00800009000984FF48850009005F5E2
:103920005C40CDE90186CDF80C900497FEF7E6FFE8
:103930000420CDE9000805F560402146CDE9026983
:103940000497FEF7DBFF312000210022FFF73AF950
:103950003120FFF723F905B0BDE8F0832DE9F047EA
:1039600086B01F4616460D460446FFF7A7F89DB1E0
:10397000804694F83400012816D10021A163E06D3F
:10398000BA19824218D9A06B40F00070A0630120E0
:1039900006B0BDE8F08700BFA06B40F00060A063F8
:1039A000012006B0BDE8F087A06B40F00050A06396
:1039B000012006B0BDE8F087032084F83400626C73
:1039C0002068012A4FF0FF32C16218BF76020092D0
:1039D0007A024FF0020901929022CDE903914FF053
:1039E000010A69460292CDF814A002F015FF022FD9
:1039F00018D3C4F830902068314603F039F8C8B1C4
:103A0000216840F2FF52C0F240028A63A16B084372
:103A1000A0630120002184F83400216306B0BDE8D2
:103A2000F08700BFC4F830A02068314603F02CF8BE
:103A30000028E5D1DDF83890019E40F22A3A05E0F1
:103A4000FFF73CF8A0EB0800484541D22068426BE4
:103A5000416B12EA0A0F25D10904F1D5002EEFD0EF
:103A600002F018FF2860206802F014FF68602068E8
:103A700002F010FFA860206802F00CFFE8602068E8
:103A800002F008FF2861206802F004FF68612068E6
:103A900002F000FFA861206802F0FCFEE86120351A
:103AA000203ECDE7022F27D311F4807124D0616C22
:103AB000032921D003F00EF901462068E1B140F25C
:103AC000FF52C0F240028263A06B0843A0E700BF30
:103AD000206840F2FF51C0F240018163A06B40F0CA
:103AE0000040A063012084F83400002020630320FC
:103AF00006B0BDE8F08700BF416B090720D4416BD9
:103B0000890727D4416B89062ED42068416B89022E
:103B100034D59EB302F0BEFE45F8040B043EFEF71A
:103B2000CDFFA0EB08004845EFD3206840F2FF51DD
:103B3000C0F240018163A06B40F0004068E700BF25
:103B400040F2FF51C0F240018163A06B40F00800D9
:103B50005EE700BF40F2FF51C0F240018163A06BFD
:103B600040F0020054E700BF40F2FF51C0F24001B4
:103B70008163A06B40F020004AE700BF40F23A5159
:103B80008163012084F83400002006B0BDE8F0878E
:103B9000FDF740BAFDF754BA2DE9F04F87B09846CB
:103BA00015460E460446FEF789FF9EB1824694F8FC
:103BB0003400012816D10021A163E06D08EB050255
:103BC000824217D9A06B40F00070A063012007B0BB
:103BD000BDE8F08FA06B40F00060A063012007B04B
:103BE000BDE8F08FA06B40F00050A063012007B04B
:103BF000BDE8F08F032084F83400626C2068012A4D
:103C00004FF0FF32C16218BF6D0201924FEA4822A5
:103C100002929022CDE9032105910121069101A98B
:103C200002F0FAFDB8F1020F18D3202020632068BB
:103C3000294603F05FF8C8B1216840F2FF52C0F294
:103C400040028A63A16B0843A0630120002184F82D
:103C50003400216307B0BDE8F08F00BF102020635F
:103C60002068294603F052F80028E5D1DDF840909D
:103C7000029F40F21A3B6D4606E000BFFEF71EFFB2
:103C8000A0EB0A0048455DD22068426B416B12EA06
:103C90000B0F41D14904F1D5002FEFD031780091BD
:103CA000727841EA02210091B27841EA0241009122
:103CB000F27841EA02610091294602F0EFFD716855
:103CC00020680091294602F0E9FDB1682068009162
:103CD000294602F0E3FDF16820680091294602F0D0
:103CE000DDFD316920680091294602F0D7FD716938
:103CF00020680091294602F0D1FDB1692068009149
:103D0000294602F0CBFDF069294600902068203654
:103D100002F0C4FD203FB1E7B8F1020F24D311F443
:103D2000807121D0616C03291ED002F0D3FF0146BF
:103D30002068C9B140F2FF52C0F240028263A06B1A
:103D4000084381E7206840F2FF51C0F240018163DF
:103D5000A06BA063012084F83400002020630320BE
:103D600007B0BDE8F08F00BF416B090710D4416B6D
:103D7000890717D4416BC9061ED440F23A518163BA
:103D8000012084F83400002007B0BDE8F08F00BFA8
:103D900040F2FF51C0F240018163A06B40F0080087
:103DA00052E700BF40F2FF51C0F240018163A06BB7
:103DB00040F0020048E700BF40F2FF51C0F240016E
:103DC0008163A06B40F010003EE7000070470000E8
:103DD00070B538B10446406A30B10020206104F16A
:103DE000140007E0012070BD6068B0F5827F03D049
:103DF00004F11C00002101600026A66294F8510025
:103E000020B9204684F8506000F03CF8022084F885
:103E1000510094E80F0001F48271056802F4044235
:103E200025F040050560114403F400622369114444
:103E300003F002026369114403F00102A369E5691A
:103E4000114403F40072114405F03802256A11444C
:103E500005F08002A56A114305F400521143016088
:103E6000626A042101EA134102F010021144416028
:103E7000C16921F40061C1610120666584F85100C7
:103E8000304670BD70B586B00446016843F200004C
:103E9000C4F20100814201D006B070BD002643F695
:103EA00030010196C4F202014A6900F5504042F423
:103EB00080524A614A6902F480520192019A019645
:103EC0000A6842F001020A60096801F001010191EB
:103ED0000199A02101910221CDE90216032104914B
:103EE0000521059101A9FEF709FD40F65C5546F252
:103EF0005840C2F20005C4F202004FF0C0614022F7
:103F00004FF4806385E847002846C5E90436C5E9D3
:103F10000666C5E90866FEF7DBFB002818BFFDF75B
:103F20009BFCA564AC6306B070BD000010B50446F0
:103F300090F85000012804BF022010BD012084F831
:103F4000500094F8510001280AD100294FF00100D7
:103F500018BF002A0AD1002184F8501010BD00BFFC
:103F60000220002184F8501010BD00BF03204FF044
:103F7000000E84F85100C4F854E02163A286E28662
:103F8000C4F838E0C4E910EEA4F83CE0A4F83EE040
:103F9000A0682268B0F5004F07D1106820F04000FB
:103FA0001060106840F480401060A06C47F2790CFB
:103FB00047F28103C0F6000CC0F60003C0E90F3CD5
:103FC00047F25903C0F60003C0E9133EE38E0C32FA
:103FD000FEF730FC50B1606D40F0100060650120CC
:103FE00084F85100002184F8501010BD2068016849
:103FF000490603D4016841F040010160416841F085
:1040000020014160416841F002014160002000212F
:1040100084F8501010BD0000704700007047000089
:10402000411E0020B0EB116F1CBF012070474EF203
:104030001002CEF2000251604EF62351CEF2000182
:10404000F0230B700721906011607047B0B590F8B5
:104050003C20012A04BF0220B0BD01F108053CCD7F
:10406000D1E900CE23F47C5322F470521A432EF48B
:10407000F0431A432CF4E0431A4324F4C0431A4398
:104080002A43C96922F4804203681143596400211C
:1040900080F83C100846B0BD10B590F83C20012ACD
:1040A0004FF0020251D080F83D200268D2F804E0BF
:1040B000D2F808C00C682EF07003234341F2FF745D
:1040C000C4F20004A24253600EDC40F2FF73C4F25B
:1040D00000039A4216DCB2F1804F2BD040F200432D
:1040E000C4F2000324E000BF40F2FF33C4F2010336
:1040F0009A4213DC41F60003C4F200039A4219D03D
:10410000002313E040F60003C4F200039A4211D0EA
:1041100040F60043C4F200030AE000BF44F200038B
:10412000C4F201039A4205D040F20043C4F20103F5
:104130009A4204D149682CF080031943916001210F
:10414000002280F83D1080F83C20104610BD000091
:10415000002804BF0120704710B5044690F83D00C8
:1041600028B9002084F83C00204600F01FF8022007
:1041700084F83D002068211D03F0D4F8012084F864
:10418000460084F83E0084F83F0084F8400084F83C
:10419000410084F8420084F8430084F8440084F825
:1041A000450084F83D00002010BD000070B582B0CD
:1041B00004460068B0F1804F3AD00021C4F20101FA
:1041C000884244D1002043F640010190C4F202012C
:1041D0004A6840F6BC5542F001024A604968C2F2A2
:1041E000000501F001010191019946F22841C4F254
:1041F00002014FF0406240234FF4005685E80E0064
:1042000005F10C014FF4806C4FF4006E81E8015011
:10421000C5E90660C5E908002846FEF759FA0028F6
:1042200018BFFDF719FB6562AC6302B070BD00BF3B
:104230000020009043F64000C4F20200016841F003
:1042400001010160006800F001000090009802B0D8
:1042500070BD000080B590F83C20012A4FF00202AA
:1042600000F0C28080F83D20D0F800C04FF6777291
:10427000DCF8083023EA0202CCF808200B684F2B48
:1042800028DC1F2B44DD202B45D0302B43D0402B86
:1042900040F0AC80D1F804E0C968DCF82030DCF8EC
:1042A000202022F00102CCF82020DCF8182022F097
:1042B000F00242EA011123F00A0242EA0E02CCF8AF
:1042C0001810CCF82020DCF8081041F0470121F04C
:1042D000300180E06F2B27DDB3F5005F48D0B3F5E8
:1042E000805F7AD0702B40F08180D1E901E3C9680A
:1042F000DCF8082043EA0E0322F47F4243EA01215E
:104300001143CCF80810DCF8081041F0770162E0A6
:104310000BB1102B6AD1DCF8081021F070011943A1
:1043200041F0070157E000BF502B35D0602B5DD125
:10433000D1F804E0C968DCF8203023F01003CCF891
:104340002030DCF81830DCF8202023F4704322F011
:10435000A00243EA013142EA0E12CCF81810CCF860
:104360002020DCF8081041F0670121F0100132E054
:10437000D1E901E3C968DCF8082043EA0E0322F41E
:104380007F4243EA01211143CCF80810DCF8081001
:1043900041F480411FE000BFD1F804E0C968DCF8B7
:1043A0002030DCF8202022F00102CCF82020DCF8BC
:1043B000182022F0F00242EA011123F00A0242EA38
:1043C0000E02CCF81810CCF82020DCF8081041F0D0
:1043D000570121F02001CCF808100022012180F8BB
:1043E0003D10002180F83C10104680BD0122F5E709
:1043F000704700002DE9F04390F83C30012B04BFDA
:104400000220BDE8F0834FEAB202032A00F2FC80EA
:10441000DFE802F0023E7EBE036840F200471A6AFF
:1044200043F4806522F001021A621C6A1A46D3F82E
:1044300004E052F818CF8E6824F00204C4F2010799
:10444000BD4244EA060405D1CE6824F00C0426F0EF
:10445000040634430E68BD4207D1D1E905572EF456
:10446000407E45EA0E0545EA070E2CF073073743F8
:10447000C3F804E09F614F6809695F631C629F692C
:1044800047F008079F619F6927F004079F61B1E02B
:10449000036840F200481A6A43F4806522F0100273
:1044A0001A621C6A1A46D3F804C052F818EF8F68D3
:1044B00024F02004C4F20108454544EA071407D15A
:1044C000CF686FF0400624F0C00406EA07163443B4
:1044D000D1F80090454506D1D1E905562CF4406746
:1044E0002E4347EA860C2EF4E64747EA0927C3F82D
:1044F00004C09F614F6809699F631C629F6947F40C
:1045000000679F619F6927F480679F6171E000BF2A
:10451000036840F200481A6A43F4806522F480720E
:104520001A621C6A1A46D3F804C052F81CEF8F684E
:1045300024F40074C4F20108454544EA072408D174
:10454000CF6840F2FF463F0224F4406427EA0606A3
:104550003443D1F80090454506D1D1E905562CF4F5
:1045600040572E4347EA061C2EF0730747EA090717
:10457000C3F804C0DF614F680969DF631C62DF694B
:1045800047F00807DF61DF6927F00407DF6131E0EA
:10459000036840F200451A6A43F4806722F48052AF
:1045A0001A621A46D3F820C05C6852F81CEFD1F8A2
:1045B00000808E68C4F20105AF4204D14D6924F435
:1045C000804444EA85142CF4005747EA06372EF459
:1045D000E64646EA08265C60DE614E6809691E64AC
:1045E0001F62DF6947F40067DF61DF6927F48067D6
:1045F000DF6109021368194311600021002280F86D
:104600003C200846BDE8F0830121002280F83C20D0
:104610000846BDE8F0830000002804BF0120704771
:1046200010B5044690F83D0028B9002084F83C00FD
:10463000204600F01FF8022084F83D002068211D6C
:1046400002F070FE012084F8460084F83E0084F8F1
:104650003F0084F8400084F8410084F8420084F868
:10466000430084F8440084F8450084F83D000020AD
:1046700010BD00007047000040F6F860C2F2000074
:10468000026800230021536300F042B97047000024
:10469000B0B50C46054649B1082C13D0042C14BF04
:1046A00005F1410005F13F000EE000BF95F83E0026
:1046B000022804BF0220B0BD05F13E0000780128A9
:1046C0001BD118E005F140000078022804BF022049
:1046D000B0BD082C0AD0042C14BF05F1410005F12F
:1046E0003F000078012808D105E000BF05F1400037
:1046F0000078012801D11AB913B10120B0BD00BF63
:1047000002206CB1082C13D0042C14BF85F8410092
:1047100085F83F004FEAB40003280FD9EDE700BF4A
:1047200085F83E004FEAB400032807D9E5E700BF4B
:1047300085F840004FEAB4000328DED8DFE800F037
:1047400002224264686A47F26141C0F60001C16317
:10475000686A47F2CD41C0F600010164686A47F219
:104760000551D5F800C0C0F60001C164686A0CF1BB
:10477000340C11466246FEF75DF80028BDD14FF4B7
:10478000007161E0A86A47F26141C0F60001C163AF
:10479000A86A47F2CD41C0F600010164A86A47F259
:1047A0000551D5F800C0C0F60001C164A86A0CF13B
:1047B000380C11466246FEF73DF800289DD14FF4B3
:1047C000806141E0E86A47F26141C0F60001C163DF
:1047D000E86A47F2CD41C0F600010164E86A47F299
:1047E0000551D5F800C0C0F60001C164E86A0CF1BB
:1047F0003C0C11466246FEF71DF800287FF47DAFA1
:104800004FF4006120E000BF286B47F26141C0F621
:104810000001C163286B47F2CD41C0F6000101647D
:10482000286B47F20551D5F800C0C0F60001C164FD
:10483000286B0CF1400C11466246FDF7FBFF002887
:104840007FF45BAF4FF480512868C2681143C160A8
:1048500004F01F010122036A02FA01F123EA0102B6
:104860000262026A114341F2FF72C4F200029042F6
:1048700001620BDC40F2FF71C4F20001884213DCDC
:10488000B0F1804F36D040F2004115E040F2FF31E8
:10489000C4F20101884215DC41F60001C4F20001B6
:1048A000884227D0002115E040F60001C4F2000143
:1048B00088421FD040F60041C4F20001884219D05E
:1048C0001FE000BF44F20001C4F20101884211D090
:1048D00040F20041C4F20101884212D1416C40F221
:1048E000004340F48062C4F2010341F400419A4263
:1048F000416406D1816801F00701062904BF002048
:10490000B0BD016841F0010101600020B0BD0000B0
:10491000B0B50D464FEAB10103290DD80446DFE8D2
:1049200001F0030D151D00BF204650F8241BCA6876
:1049300022F4007218E000BF0120B0BD204650F8FC
:10494000281BCA6822F480620EE000BF204650F89F
:104950002C1BCA6822F4006206E000BF204650F813
:10496000301BCA6822F48052CA600068FDF7BEFDA1
:10497000206805F01F010122036A02FA01F123EA0F
:104980000101016240F20043016A40F48062C4F216
:1049900001039A42016209D1016A41F211121142E6
:1049A00004D1016A40F2444211420FD0016A41F23F
:1049B0001112114213D1016A40F2444211420ED148
:1049C000016821F00101016009E000BF416C21F4A0
:1049D00000414164016A41F211121142EBD0012001
:1049E000082D09D0042D0BD0002D14BF84F84100F0
:1049F00084F83E000020B0BD84F840000020B0BD27
:104A000084F83F000020B0BD002804BF012070479B
:104A100010B5044690F83D0028B9002084F83C0009
:104A2000204600F021F8242084F83D002068C16869
:104A300021F40051C160204602F094FD2068016914
:104A400021F490410161416921F02A014161C1686D
:104A500041F40051C16000202021206484F83D1001
:104A600084F83E1010BD00002DE9F04385B00068C9
:104A700041F20005C4F20105A84203D005B0BDE82B
:104A8000F08300BF002643F630000096C4F2020017
:104A900041696C4641F01001416141694FF00208E3
:104AA00001F0100100910099009601684FF0030990
:104AB00041F0010101600168072701F00101009147
:104AC00000990096016841F00201016000682146EA
:104AD00000F00200009000984FF40070009005F57F
:104AE0007040CDE90186CDF80C900497FDF706FFE4
:104AF0008020CDE9000805F574402146CDE9026922
:104B00000497FDF7FBFE05B0BDE8F0832DE9F04307
:104B100081B0044690F83D0020280DD10F460029B1
:104B20004FF0010000F0DD801646002A00F0D98029
:104B300094F83C00012803D1022001B0BDE8F083C5
:104B4000012084F83C000020206421201D4684F8C8
:104B50003D00FDF7B3FFA684E684A1680646B1F5E3
:104B6000805F03D12069002800F01081B84600273B
:104B7000002084F83C00E18C2068002900F090803F
:104B800005F101090DE000BFB8F1000F28D018F8B9
:104B9000011B4160E18C0139E184E18C002900F0C6
:104BA0007F8001680906EFD4B9F1000F0AD0FDB18A
:104BB000FDF784FF801BA8421AD820680168090607
:104BC000F6D5E1E701680906DED4016809065CBF95
:104BD00001685FEA0161D7D401680906F2D5D3E71D
:104BE00037F8021B4FF000086FF35F21D1E700BFD9
:104BF000206850E8030F216820F4D07041E80302D8
:104C0000BAB3206850E8030F216820F4D07041E85F
:104C1000030272B3206850E8030F216820F4D070BB
:104C200041E803022AB3206850E8030F216820F40A
:104C3000D07041E80302002ADAD11AE0206850E877
:104C4000050F216820F0010041E80502DAB1206873
:104C500050E8050F216820F0010041E8050292B1FB
:104C6000206850E8050F216820F0010041E80502A6
:104C70004AB1206850E8050F216820F0010041E8A2
:104C80000502002ADAD1202084F83D0084F83E0095
:104C9000002084F83C00032001B0BDE8F08300BF91
:104CA0000168490619D4FDB1691C0DD10168490696
:104CB00013D4016849065CBF01685FEA41610CD406
:104CC00001684906F2D508E0FDF7F8FE801BA8420E
:104CD0000AD8206800684006F6D5202084F83D00F8
:104CE000002001B0BDE8F083206850E8030F216880
:104CF00020F4D07041E80302E2B3206850E8030FCB
:104D0000216820F4D07041E803029AB3206850E88B
:104D1000030F216820F4D07041E8030252B32068E9
:104D200050E8030F216820F4D07041E80302002A04
:104D3000DAD11FE0206850E8050F216820F001005B
:104D400041E80502002A9ED0206850E8050F21683E
:104D500020F0010041E80502002A3FF494AF2068EA
:104D600050E8050F216820F0010041E80502002A03
:104D70003FF489AF206850E8050F216820F001005A
:104D800041E80502002AD5D17DE700BF4FF00008B9
:104D9000EEE60000FEE700002DE9F04383B040F2AC
:104DA000000806462A20C4F2020814460F468DF871
:104DB00001004046402100229946FDF779FE40F669
:104DC000A065C2F200050DF1010128460122FFF79E
:104DD000ADF8404640210122FDF76AFE06F11400BD
:104DE000010A8DF803108DF802000DF10301284629
:104DF0000122FFF79BF80DF1020128460122FFF77F
:104E000095F804F11400010A8DF805108DF80400DE
:104E10000DF1050128460122FFF788F801A928466F
:104E20000122FFF783F82B208DF806004046402131
:104E30000022FDF73DFE0DF1060128460122FFF795
:104E400075F8404640210122FDF732FE380A8DF800
:104E5000080002A9284601228DF80770FFF766F8BE
:104E60000DF1070128460122FFF760F84FEA1920EB
:104E70008DF80A000DF10A01284601228DF80990EB
:104E8000FFF754F80DF1090128460122FFF74EF80B
:104E90002C208DF80B00404640210022FDF708FE33
:104EA0000DF10B0128460122FFF740F84046402152
:104EB0000122FDF7FDFD03B0BDE8F0832DE9F04FC1
:104EC00089B0139D144682466A08280905938846CE
:104ED00001210692520718BF01EB151000FB05F7E0
:104EE0000AEB550008EB05010138013982B28BB29B
:104EF00050464146FFF750FF002F00F09581A5F185
:104F00000C00C1B2800140EA9100C6B2052E00F249
:104F10008B810120B04010F02B0F00F08581059AA5
:104F20001499120AA4F1200004924DF637724CF243
:104F300003334CF2777C4CF6675EC0B20029C0F6B2
:104F40000002C0F60003C0F6000CC0F6000E00F030
:104F50006F8100EB400103EB81040EEB0111002592
:104F600002910CEB001102EB8010D34601910090EE
:104F7000039600BF032E05D0012E05D020462EB18A
:104F8000009802E0029800E00198284490F8009010
:104F90005FEAC9701DD01FFA8BF01FFA88F1024634
:104FA0000B46FFF7F9FE049840F6A0668DF8230043
:104FB0000598C2F200068DF8220030460DF123015B
:104FC0000122FEF7B3FF30460DF122010122FEF768
:104FD000ADFF0BF1010080B2069AA0EB0A019142ED
:104FE00000F018815FEA89711BD51FFA88F102462B
:104FF0000B46FFF7D1FE049840F6A0668DF823001B
:105000000598C2F200068DF8220030460DF123010A
:105010000122FEF78BFF30460DF122010122FEF73F
:1050200085FF0BF1020080B2069AA0EB0A019142C3
:1050300000F0F0805FEA49711BD51FFA88F1024643
:105040000B46FFF7A9FE049840F6A0668DF82300F2
:105050000598C2F200068DF8220030460DF12301BA
:105060000122FEF763FF30460DF122010122FEF717
:105070005DFF0BF1030080B2069AA0EB0A0191429A
:1050800000F0C8805FEA09711BD51FFA88F102465B
:105090000B46FFF781FE049840F6A0668DF82300CA
:1050A0000598C2F200068DF8220030460DF123016A
:1050B0000122FEF73BFF30460DF122010122FEF7EF
:1050C00035FF0BF1040080B2069AA0EB0A01914271
:1050D00000F0A0805FEAC9611BD51FFA88F1024683
:1050E0000B46FFF759FE049840F6A0668DF82300A2
:1050F0000598C2F200068DF8220030460DF123011A
:105100000122FEF713FF30460DF122010122FEF7C6
:105110000DFF0BF1050080B2069AA0EB0A01914247
:1051200078D05FEA89611BD51FFA88F102460B46E9
:10513000FFF732FE049840F6A0668DF8230005982C
:10514000C2F200068DF8220030460DF12301012243
:10515000FEF7ECFE30460DF122010122FEF7E6FEDD
:105160000BF1060080B2069AA0EB0A01914251D0E1
:105170005FEA49611BD51FFA88F102460B46FFF72B
:105180000BFE049840F6A0668DF823000598C2F245
:1051900000068DF8220030460DF123010122FEF7B2
:1051A000C5FE30460DF122010122FEF7BFFE0BF1D4
:1051B000070080B2069AA0EB0A0191422AD04FFA6A
:1051C00089F1B1F1FF3F1BDC1FFA88F102460B4663
:1051D000FFF7E2FD049840F6A0668DF823000598DD
:1051E000C2F200068DF8220030460DF123010122A3
:1051F000FEF79CFE30460DF122010122FEF796FEDD
:105200000BF1080B1FFA8BF00699A0EB0A008842FD
:1052100003D100BF08F10108D346039E0135013FC9
:1052200004F101047FF4A6AE09B0BDE8F08F00BF21
:10523000129940F6A0698A46090A039100EB4001E1
:1052400002EB80154FF0000B029103EB8101C2F2DB
:1052500000090CEB00104FF000080191009000BF16
:1052600066B1012E0CD0032E28460BD102984CF6C5
:105270006751C0F6000101EB001002E0019800E068
:10528000009858440478E0070ED103980DF12101ED
:105290008DF82100484601228DF820A0FEF746FE39
:1052A000484608A90FE000BF04980DF11F018DF8D2
:1052B0001F00059801228DF81E004846FEF736FEB5
:1052C00048460DF11E010122FEF730FE08F10100F3
:1052D000069AC0B2B0FBF2F101FB1200002800F008
:1052E0002181A0070ED403980DF121018DF8210032
:1052F000484601228DF820A0FEF718FE484608A96E
:105300000FE000BF04980DF11F018DF81F000598F4
:1053100001228DF81E004846FEF708FE48460DF1B2
:105320001E010122FEF702FE08F10200069AC0B239
:10533000B0FBF2F101FB1200002800F0F3806007DF
:105340000ED403980DF121018DF821004846012269
:105350008DF820A0FEF7EAFD484608A90FE000BF3F
:1053600004980DF11F018DF81F00059801228DF89A
:105370001E004846FEF7DAFD48460DF11E010122E7
:10538000FEF7D4FD08F10300069AC0B2B0FBF2F1BB
:1053900001FB1200002800F0C58020070ED40398FE
:1053A0000DF121018DF82100484601228DF820A041
:1053B000FEF7BCFD484608A90FE000BF04980DF1B8
:1053C0001F018DF81F00059801228DF81E00484628
:1053D000FEF7ACFD48460DF11E010122FEF7A6FDC9
:1053E00008F10400069AC0B2B0FBF2F101FB120012
:1053F000002800F09780E0060ED403980DF12101FB
:105400008DF82100484601228DF820A0FEF78EFD80
:10541000484608A90FE000BF04980DF11F018DF860
:105420001F00059801228DF81E004846FEF77EFDFC
:1054300048460DF11E010122FEF778FD08F1050036
:10544000069AC0B2B0FBF2F101FB1200002869D04D
:10545000A0060DD403980DF121018DF821004846D6
:1054600001228DF820A0FEF761FD484608A90EE054
:1054700004980DF11F018DF81F00059801228DF889
:105480001E004846FEF752FD48460DF11E0101225E
:10549000FEF74CFD08F10600069AC0B2B0FBF2F12F
:1054A00001FB120000283DD060060DD403980DF1D9
:1054B00021018DF82100484601228DF820A0FEF739
:1054C00035FD484608A90EE004980DF11F018DF83E
:1054D0001F00059801228DF81E004846FEF726FDA4
:1054E00048460DF11E010122FEF720FD08F10700DC
:1054F000069AC0B2B0FBF2F101FB120090B160B2AB
:10550000B0F1FF3F18DD03980DF121018DF8210066
:10551000484601228DF820A0FEF708FD484608A95C
:1055200019E000BF4FF000080BF1010B013F05F13E
:1055300001057FF495AE77E604980DF11F018DF813
:105540001F00059801228DF81E004846FEF7EEFC6C
:1055500048460DF11E010122FEF7E8FC08F10800A3
:10556000069BC1B2B1FBF3F202FB1318B8F1000FB6
:1055700018BF80460BF1010B013F05F101057FF4D7
:105580006FAE51E62DE9F04F83B09B461378CBB157
:10559000DDE90C9ADDF838800D4606464FEA5A07D9
:1055A000541E00BFB0B2DAB229465B46CDE9009A7C
:1055B000CDF80880FFF782FCA3783E44002B04F16D
:1055C0000104EFD103B0BDE8F08F00002DE9F04FEA
:1055D00081B00024C4F2020404F5006528462021AD
:1055E0000122FDF765FA0A20FDF774F9284620210B
:1055F00000224FF0000BFDF75BFA0A20FDF76AF975
:10560000284620210122FDF753FA7820FDF762F9A0
:10561000FD208DF803002046402100224FF0400974
:10562000FDF746FA40F6A065C2F200050DF1030150
:1056300028460122FEF77AFC204640210122FDF790
:1056400037FA06208DF803000DF1030128460122E8
:10565000FEF76CFC0120FDF73DF908208DF80300F2
:105660000DF1030128460122FEF760FC0120FDF741
:1056700031F961208DF80300204640210022FDF71A
:1056800017FA0DF1030128460122FEF74FFC2046D0
:1056900040210122FDF70CFA07260DF103012846EF
:1056A00001228DF80360FEF741FC0120FDF712F99D
:1056B00004208DF803000DF1030128460122FEF7B6
:1056C00035FC0120FDF706F962208DF80300204625
:1056D00040210022FDF7ECF90DF1030128460122DB
:1056E000FEF724FC204640210122FDF7E1F90DF1EF
:1056F0000301284601228DF803B0FEF717FC0120B4
:10570000FDF7E8F844208DF803000DF10301284669
:105710000122FEF70BFC0120FDF7DCF845208DF897
:1057200003000DF1030128460122FEF7FFFB0120D3
:10573000FDF7D0F863208DF80300204640210022B9
:10574000FDF7B6F90DF1030128460122FEF7EEFB45
:10575000204640210122FDF7ABF941208DF80300DE
:105760000DF1030128460122FEF7E0FB0120FDF7C1
:10577000B1F80DF10301284601228DF80360FEF710
:10578000D5FB0120FDF7A6F812208DF803000DF1DE
:105790000301284601221226FEF7C8FB0120FDF76F
:1057A00099F80DF10301284601228DF80360FEF7F8
:1057B000BDFB0120FDF78EF864208DF80300204624
:1057C00040210022FDF774F90DF103012846012262
:1057D000FEF7ACFB204640210122FDF769F9372096
:1057E0008DF803000DF1030128460122FEF79EFB10
:1057F0000120FDF76FF865208DF803002046402159
:105800000022FDF755F90DF1030128460122FEF7AC
:105810008DFB204640210122FDF74AF909208DF831
:1058200003000DF10301284601220926FEF77EFB45
:105830000120FDF74FF810208DF803000DF1030152
:10584000284601224FF01008FEF770FB0120FDF7FB
:1058500041F821208DF803000DF1030128460122B3
:105860002127FEF763FB0120FDF734F84FF0660AAD
:105870002046402100228DF803A0FDF719F90DF113
:10588000030128460122FEF751FB20464021012258
:10589000FDF70EF90DF10301284601228DF8036092
:1058A000FEF744FB0120FDF715F80DF10301284632
:1058B00001228DF80380FEF739FB0120FDF70AF87D
:1058C0000DF10301284601228DF80370FEF72EFB2F
:1058D0000120FCF7FFFF67208DF8030020464021E0
:1058E0000022FDF7E5F80DF1030128460122FEF73D
:1058F0001DFB204640210122FDF7DAF820208DF81B
:1059000003000DF1030128460122FEF70FFB0120E1
:10591000FCF7E0FF0DF10301284601228DF803900A
:10592000FEF704FB0120FCF7D5FF68208DF803008B
:10593000204640210022FDF7BBF80DF10301284667
:105940000122FEF7F3FA204640210122FDF7B0F8CC
:1059500090208DF803000DF1030128460122FEF787
:10596000E5FA0120FCF7B6FF4C208DF803000DF19D
:10597000030128460122FEF7D9FA0120FCF7AAFF0D
:105980007C208DF803000DF1030128460122FEF76B
:10599000CDFA0120FCF79EFF0DF1030128460122FC
:1059A0008DF803A0FEF7C2FA0120FCF793FFB120A7
:1059B0008DF80300204640210022FDF779F80DF113
:1059C000030128460122FEF7B1FA204640210122B8
:1059D000FDF76EF80F208DF803000DF10301284646
:1059E0000122FEF7A3FA0120FCF774FF02208DF8D4
:1059F00003000DF1030128460122FEF797FA01206A
:105A0000FCF768FF01260DF10301284601228DF8FD
:105A10000360FEF78BFA0120FCF75CFFB4208DF8E1
:105A20000300204640210022FDF742F80DF103015A
:105A300028460122FEF77AFA204640210122FDF78E
:105A400037F80DF10301284601228DF803604FF06D
:105A5000010AFEF76BFA0120FCF73CFFB5208DF838
:105A60000300204640210022FDF722F80DF103013A
:105A700028460122FEF75AFA204640210122FDF76E
:105A800017F802260DF10301284601228DF8036064
:105A9000FEF74CFA0120FCF71DFF0DF1030128462B
:105AA00001228DF803600226FEF740FA0120FCF780
:105AB00011FF0A208DF803000DF103012846012291
:105AC000FEF734FA0120FCF705FF14208DF80300DF
:105AD0000DF1030128460122FEF728FA0120FCF708
