:020000040800F2
:100000005822002089020008C1870008256C0008DA
:10001000BD87000845100008319600080000000068
:10002000000000000000000000000000099200082D
:100030007910000800000000C58700080D92000834
:10004000A3020008A3020008A3020008A3020008FC
:10005000A3020008A3020008A3020008A3020008EC
:10006000A3020008A3020008A3020008A3020008DC
:10007000A3020008A3020008A3020008A3020008CC
:10008000A3020008A3020008A3020008A3020008BC
:1000900049100008A3020008A3020008A3020008F8
:1000A000A3020008A3020008A3020008A30200089C
:1000B000A3020008A3020008A3020008A30200088C
:1000C000A3020008A3020008A3020008A30200087C
:1000D000A3020008A3020008A3020008A30200086C
:1000E000A3020008A3020008A3020008A30200085C
:1000F000A3020008A3020008A3020008A30200084C
:10010000A302000801880008A3020008A302000857
:10011000A3020008A3020008A3020008A30200082B
:10012000A302000861100008A30200086D10000877
:10013000A30200080000000000000000A302000865
:1001400055100008A3020008A3020008A30200083B
:10015000A3020008A3020008A3020008A3020008EB
:10016000A3020008A3020008A3020008A3020008DB
:10017000A3020008A3020008000000000000000025
:10018000A3020008A302000800F002F800F06CF8D7
:100190000AA090E8000C82448344AAF10107DA45E2
:1001A00001D100F061F8AFF2090EBAE80F0013F0C8
:1001B000010F18BFFB1A43F001031847D41A0100BE
:1001C000F41A01000A444FF0000C10F8013B13F040
:1001D000070408BF10F8014B1D1108BF10F8015BA0
:1001E000641E05D010F8016B641E01F8016BF9D193
:1001F00013F0080F1EBF10F8014BAD1C0C1B09D1EA
:100200006D1E58BF01F801CBFAD505E014F8016B5B
:1002100001F8016B6D1EF9D59142D6D370470000ED
:100220000023002400250026103A28BF78C1FBD8FF
:10023000520728BF30C148BF0B607047642900F0E7
:100240002581732900F04482002070471FB50DF00E
:10025000B5FF9DE8030000F06FFC00F093FA1FBDAE
:1002600010B500F0F8FA10BD00F028FB1146FFF7BA
:10027000EDFF0CF005F800F02FFC03B4FFF7F0FFE2
:1002800003BC00F0D7FD000009488047094800473B
:10029000FEE7FEE7FEE7FEE7FEE7FEE7FEE7FEE736
:1002A000FEE7FEE704480549054A064B7047000093
:1002B000C19200088901000858100020582200202F
:1002C000581200205812002053EA020C00F06980F6
:1002D0002DE9F04B4FF00006002B1FBFB3FA83F55A
:1002E00003FA05F424FA05F65E4012BF1643B2FA8B
:1002F00082F502FA05F4C5F120051EBF22FA05FCBD
:1003000044EA0C04203556EA044C4FEA144418BF62
:10031000641C4FF000084FF00009904271EB030C91
:1003200039D3002919BFB1FA81F701FA07F6B0FAFB
:1003300080F700FA07F6C7F120071EBF20FA07FC76
:1003400046EA0C062037B6FBF4FCA7EB0507103F86
:1003500007F01F0BCBF120062CFA06F60CFA0BFB6C
:1003600044BFB3460026202FA4BF5E464FF0000BCB
:100370005BEA060C08BF4FF0010B19EB0B0948EBC9
:100380000608ABFB027C06FB02CC0BFB03CCC01BBC
:1003900071EB0C01C1E70B46024641464846BDE8F9
:1003A000F08B13B5084318BF4FF0FF300146AFF391
:1003B0000080BDE81C4070470FB4044910B503AA83
:1003C000029800F089F910BC5DF814FBAC01002024
:1003D0002DE9F0410E460446002020622046E168E7
:1003E000884730B3252805D0D4E901219047206AF9
:1003F000401CF2E7E168204600278847050018D036
:10040000A5F14100192802D820354FF40067324683
:10041000294620462760FFF711FF40B1012804D08C
:10042000F61D26F007060836D8E7361DD6E728461B
:10043000DAE7206ABDE8F08170B50C460546012A6E
:1004400005D02878800600D5EA69002302E0012360
:1004500005E05B1C934202D2E05C0028F9D1A86958
:10046000E618C01AA861286A184428622846AFF323
:10047000008004E0D5E9012114F8010B9047B44253
:10048000F8D32846AFF3008070BD00002DE9F0419D
:100490000646002410687529314616A510D0AFF322
:1004A0000080002802DA404213A507E031688A077D
:1004B00001D512A502E0490704D511A5012401E0E8
:1004C000AFF3008000210A2206F1240709E0B0FB07
:1004D000F2FCB0FBF2F302FB1C00303078541846FB
:1004E000491C0028F3D123462A463046BDE8F04196
:1004F00000F083B8000000002D0000002B00000079
:100500002000000010B5044603E00BF0B5FD401CD0
:1005100009D014F8010B05490028F6D1BDE81040B8
:100520000A200BF0A9BD4FF0FF3010BDAC01002038
:100530004FF000020429C0F0128010F0030C00F00C
:10054000DF80CCF1040CBCF1020F18BF00F8012BC6
:10055000A8BF20F8022BA1EB0C0100F0D1B85FEA94
:10056000C17C24BF00F8012B00F8012B48BF00F824
:10057000012B70470000000030B44FF0013C50F8F0
:10058000042B51F8043BCCFA52F4D51A20D1FCB913
:1005900050F8042B51F8043BCCFA52F4D51A17D179
:1005A000B4B950F8042B51F8043BCCFA52F4D51AE4
:1005B0000ED16CB950F8042B51F8043BCCFA52F42C
:1005C000D51A05D1002CDAD030BC4FF000007047AE
:1005D00029BAB1FA81F111F01801D1F1200084405B
:1005E000F2D1CA40CB4012F0FF0213F0FF0330BC3F
:1005F000D01A70477047704770472DE9F0470D4695
:1006000099469246044600F124080168880604D5FC
:10061000E06921F01001216000E00120A84201DD25
:10062000471B00E00027A1697A1902EB0900081AAC
:10063000A0612078C00602D42046AFF300800026D7
:1006400008E0D4E901211AF806009047206A401C0E
:10065000761C20624E45F4DB2078C0060AD5204681
:10066000AFF3008006E0D4E9012130209047206AF2
:10067000401C2062381EA7F10107F4DC07E0D4E932
:10068000012118F805009047206A401C2062281EAE
:10069000A5F10105F3DC2046AFF3008020780006C9
:1006A00002D50220BDE8F0870120FBE710B54369C1
:1006B00013B1AFF3008001E0FFF7BEFE012010BDD3
:1006C000127800F124010A7000224A700122EDE73D
:1006D00011684FF0FF32E9E7074B70B50D467B44D8
:1006E00000F039F80446284600F048F810B14FF001
:1006F000FF3070BD204670BD97B900004FF000027A
:1007000000B5134694469646203922BFA0E80C5007
:10071000A0E80C50B1F12001BFF4F7AF090728BFE2
:10072000A0E80C5048BF0CC05DF804EB890028BF5E
:1007300040F8042B08BF704748BF20F8022B11F087
:10074000804F18BF00F8012B7047000001694A1C58
:1007500002610878704700B58FB0CDE90131002102
:10076000059105497944CDE9031011466846FFF724
:100770002FFE0FB000BD0000E5FFFFFF007B00F083
:100780008000704710B542485421FFF7B7FF414839
:100790005421FFF7B3FF40485421FFF7AFFF3F4913
:1007A0003B483C4A3F4B08603D490A603A49196062
:1007B000531C0365481C1065012008653B48344AFA
:1007C00039A1784400F0EAF820B9384878440A386A
:1007D00000F08BF937482F4A35A1784400F0DEF855
:1007E00020B9344878440A3800F07FF932482A4A60
:1007F0002FA1784400F0D2F820B92F4878440A3865
:1008000000F073F940232248DC000021224600F06A
:10081000A1F820B125487844543800F066F91D4805
:1008200022464023002100F095F820B12148784469
:10083000543800F05AF9184822461023002100F0DD
:1008400089F8002806D01C487844BDE81040563886
:1008500000F04BB910BD104870B5006D20F00104D8
:100860000B4800F013F90B4800F010F90A4800F0AB
:100870000DF909E0206D20F00105204600F006F991
:10088000204600F040F82C46002CF3D170BD00004B
:1008900058010020AC0100200002002000000020D0
:1008A000040000200800002072000000DEDB0000D1
:1008B00077000000CDDB0000A6DB0000754600F0ED
:1008C0001BF9AE4605006946534620F007008546F1
:1008D00018B020B5FFF7E6FCBDE820404FF0000659
:1008E0004FF000074FF000084FF0000BAC46ACE8AB
:1008F000C009ACE8C009ACE8C009ACE8C00921F007
:1009000007018D46704770B50446051F00F0F8F8E2
:100910000068002C14BF446870BD002C18BFAC42A6
:100920003CBF20466468F8D301680A18AA4218BF81
:10093000456003D12A6805461144016028684119C1
:10094000A1421CBF6C6070BD616869602168084489
:10095000286070BD70B5C468A50713D0650211D4B6
:10096000B2F5807F09D0B2F5007F06D0B2F5806F76
:1009700008D1012300F1240106E05D1E6FF07F46DF
:10098000B54201D3012070BD0161C361416024F40F
:1009900070611143C160002070BD00002DE9F0417D
:1009A0000C461646070047D0104600F06FF8207836
:1009B000611C61280AD0722802D077283CD102E05D
:1009C0000125002405E00225042402E0082448F261
:1009D000020511F8010B2B2806D0622809D011F866
:1009E000010C74280AD00BE045F0030544F0020422
:1009F000EFE745F0040544F00104EAE744F0100491
:100A00003846214608F02AFE411C15D000213161EC
:100A100071604FF40071F560F1617061200704D5D9
:100A200030460222002100F0E5F8306D40F0010070
:100A300030653046BDE8F0810020FBE72DE9F0414C
:100A40000D460646104C206DC10704D0410804D065
:100A500020F00104F7E722460EE0542000F09BF856
:100A600007000ED0206D47F0010108435421206596
:100A70003846FFF743FE3A4629463046BDE8F04186
:100A80008CE70020D6E70000580100202DE9F04750
:100A900004464FF0FF380026C568D4E90497A8073C
:100AA00018D0204600F062F9384608F0C3FD00284F
:100AB00000DA4646280502D54846FFF724FF4C21B8
:100AC0002046FFF71BFE206D20F001002065304618
:100AD000BDE8F0874046FBE710B50446AFF3008061
:100AE0002046BDE81040FFF7C8BB10B500F088F9FC
:100AF000BDE8104000F07EB9004870475402002065
:100B0000004870475C02002070477047704770478C
:100B100038B504460A4600206946AFF30080002835
:100B200008BF38BD02460099204600F090F9012028
:100B300038BD012000F0DFB9F8B5AFF300800546FD
:100B400000200C46102000BF0646A819A0420DD96F
:100B5000324669460020AFF30080070008BF00F06E
:100B6000CAF90098A04218BF0546C419FFF7C8FF8C
:100B700005600746F01D20F007004619284600F0E2
:100B80005FF9B44208BFF8BDA21B31463868BDE822
:100B9000F84000F05CB970B50646FFF7B1FF056894
:100BA00006F10B0020F00704B4429CBF002070BD8A
:100BB0002B466A68BAB11068A04210D304F108014C
:100BC00088423CBF5068586007D351681019416093
:100BD0001168091B016058601460101D70BD134638
:100BE0005268002AE7D121462846FFF791FF0028E6
:100BF000DED170BD2DE9F041044616460D46476929
:100C0000007B80072ED0384608F020FD50BB3EB355
:100C1000012E02D0022E25D104E0204600F031F949
:100C200005441DE0384608F00FFDE168002841F05A
:100C30001001E16005DA204600F058F80120BDE817
:100C4000F081C9030BD56268E16A914200D8114670
:100C5000A26911442269891A814200DD08460544CF
:100C6000002D01DA0220EAE7E16A6068E268814269
:100C700006D29103E06203D522F4003141F0100264
:100C8000A6690027AE4213DCE16A814201D90B4616
:100C900000E0034603EB060C2369ACEB030CAC4508
:100CA00006DD814201D98C4600E084469C4505D191
:100CB000A760276042F02000A5620DE0AD1BE66949
:100CC000AE1B8142A66000D90846C01A281A2060CF
:100CD0005819606022F0200003490840E0600020BD
:100CE00084F84870ABE70000BFCFD7FFC16821F49C
:100CF000001141F08001C1600021816001607047F6
:100D00002DE9F74F15460C464FF0FF3B3848D768A2
:100D1000D2F814A0074209D05046A96908F0D0FCC7
:100D2000002819DB3248C0430740EF604FF000490C
:100D30006FF000484C4501D3464600E02646009936
:100D40003B465046324608F0BFFCA96920F00042FD
:100D5000B21A1144A96128B12846FFF7C7FF5846C7
:100D6000BDE8FE8FA41BE5D10020F9E770B504466D
:100D70000569C06A6168884200D80846E16821F4C4
:100D80002011E160C90312D5A84208D02246411BB8
:100D90002846FFF7B5FF10B14FF0FF3070BD0020BF
:100DA000E562C4E90150E06820F48030E060002092
:100DB00070BD10B50446C06820F02000E060A16A54
:100DC000A06988420DD02046FFF7D0FFE06820F4EC
:100DD000405040F01000E060A06AA0612069E0622D
:100DE000606044F24001E0688843E06010BD0000AC
:100DF00010000200002801D000F01CB8704700006D
:100E000010B5014602A000F05DF8012010BD000001
:100E100053494752545245443A20526564697265B9
:100E200063743A2063616E2774206F70656E3A2098
:100E30000000000001491820ABBEFEE726000200BA
:100E400000210160C0E9011070471020704703467F
:100E500040688C46002818BF88423CBF0346406863
:100E6000F8D318681844884207D00CF1030020F02A
:100E70000700001D411A521A0146081D0A60FFF7BB
:100E800042BD10B50146C268900703D0900607D551
:100E9000886A0AE000F03EF801210160881E10BD5A
:100EA0008B69486818440B69C01A91F848301BB127
:100EB00091F84910401A10BD1103FCD50028FADD45
:100EC000401E10BD70B505460C460A2000E06D1CA2
:100ED00000F018F835B128780028F8D102E0641C39
:100EE00000F010F814B120780028F8D1BDE8704067
:100EF0000A2000F007B810B500F010F8BDE8104067
:100F0000FFF778BF08B569468DF800000320ABBE37
:100F100008BD7047004870475402002010B50128F2
:100F200005D0002103A0FFF7CDFF012010BD09A1CE
:100F3000F8E7000053494752544D454D3A204F754C
:100F400074206F662068656170206D656D6F7279C1
:100F5000000000003A2048656170206D656D6F7279
:100F60007920636F727275707465640080B540F2A9
:100F70000040C4F20200102103F0DCFC012080BD1F
:100F800070470000014640F61C60C2F2000004F009
:100F90002DB9000080B540F61C60C2F2000004F0DC
:100FA00037F9043818BF012080BD000080B500F07B
:100FB0000DF801281CBF012080BD40F61C60C2F264
:100FC0000000BDE8804004F089BA000080B582B01E
:100FD00001208DF80700FFF7C9FF002804BF00209B
:100FE0008DF807009DF8070002B080BD80B582B083
:100FF0009C4613460A46014640F61C60C2F20000B9
:10100000CDF800C004F0F2FB002818BF012002B0A8
:1010100080BD00007047000080B582B09C4613463A
:101020000A46014640F61C60C2F20000CDF800C03E
:1010300004F0FAFC002818BF012002B080BD0000B7
:1010400070470000FEE7000040F60C50C2F20000BE
:1010500002F0E0BE40F63450C2F2000002F0DABE08
:1010600040F6BC50C2F2000003F09AB940F65C5062
:10107000C2F2000003F094B9704700002DE9F0417E
:1010800040F2EC24C2F2000420464FF48061FFF7E6
:101090004FFA00BF204610F8011B69B161780029A2
:1010A00004F102010CD0A07860B1E078043400288B
:1010B000F0D1601E08E000BF2046013404E000BF0C
:1010C0000C4601E003340846302140F6D078017028
:1010D0003A21C2F200082170002198F800208170A6
:1010E0004CF6CD4140F66400642ACCF6CC41C2F205
:1010F00000000BD348F21F53C5F2EB13A2FB0337DA
:101100007B0930330370012304E000BF0A2A4FF04B
:1011100000030DD3A2FB0176F708A7FB0165EE08DB
:1011200046EA8606A7EB460747F03007C754013367
:10113000A2FB0176F70807EB8707A2EB470242F014
:101140003002C718C2542022A7F8012040F2EC2236
:10115000C2F20002137863B153784BB193785BB15C
:10116000D3780432002BF5D1013A05783DB91EE061
:10117000013205781DB91AE002320578BDB10023AD
:10118000C6187778D418D55467B1B57867705DB153
:10119000F778A57057B135790433002DE770EFD19A
:1011A0001A4404E0621C02E0A21C00E0E21C98F871
:1011B00001300027642B17700AD348F21F52C5F282
:1011C000EB12A3FB02277A0930320270012203E0FE
:1011D0000A2B4FF000020DD3A3FB0176F708A7FB03
:1011E0000165EE0846EA8606A7EB460747F030079A
:1011F00087540132A3FB0176F70807EB8707A3EBBF
:10120000470343F03003871883542022A7F80120B6
:1012100040F2EC22C2F20002137863B153784BB172
:1012200093785BB1D3780432002BF5D1013A05787D
:101230003DB91EE0013205781DB91AE00232057889
:10124000BDB10023C6187778D418D55467B1B578E6
:1012500067705DB1F778A57057B135790433002D0B
:10126000E770EFD11A4404E0621C02E0A21C00E027
:10127000E21C98F802300027642B17700AD348F25A
:101280001F52C5F2EB12A3FB02277A09303202701B
:10129000012203E00A2B4FF000020DD3A3FB0176DD
:1012A000F708A7FB0165EE0846EA8606A7EB4607A6
:1012B00047F0300787540132A3FB0176F70807EBAC
:1012C0008707A3EB470343F030038718835420229A
:1012D000A7F8012040F2EC22C2F20002137863B1B9
:1012E00053784BB193785BB1D3780432002BF5D1AE
:1012F000013A05783DB91EE0013205781DB91AE0C2
:1013000002320578BDB10023C6187778D418D554B9
:1013100067B1B57867705DB1F778A57057B1357969
:101320000433002DE770EFD11A4404E0621C02E0A0
:10133000A21C00E0E21C98F803300027642B177011
:101340000AD348F21F52C5F2EB12A3FB02277A0917
:1013500030320270012203E00A2B4FF000020DD35D
:10136000A3FB0176F708A7FB0165EE0846EA8606AF
:10137000A7EB460747F0300787540132A3FB0176FD
:10138000F70807EB8707A3EB470343F03003871801
:1013900083542022A7F8012040F2EC22C2F200027E
:1013A000137863B153784BB193785BB1D37804323F
:1013B000002BF5D1013A05783DB91EE001320578E0
:1013C0001DB91AE002320578BDB10023C61877783E
:1013D000D418D55467B1B57867705DB1F778A5704A
:1013E00057B135790433002DE770EFD11A4404E08A
:1013F000621C02E0A21C00E0E21C98F80430002706
:10140000642B17700AD348F21F52C5F2EB12A3FBEC
:1014100002277A0930320270012203E00A2B4FF0D2
:1014200000020DD3A3FB0176F708A7FB0165EE08C8
:1014300046EA8606A7EB460747F030078754013295
:10144000A3FB0117F90801EB8101A3EB410141F076
:101450003001831881542021A3F8011040F2EC21BF
:10146000C2F200010A7862B14A784AB18A785AB168
:10147000CA780431002AF5D1013905783DB91EE05A
:10148000013105781DB91AE002310578BDB100229D
:10149000861877788B188D5467B1B5785F705DB119
:1014A000F7789D7057B135790432002DDF70EFD198
:1014B000114404E0591C02E0991C00E0D91C40F6DC
:1014C0006404002098ED020AC2F20004087020466D
:1014D0000AF07EFB40F2EC20C2F20000017861B11C
:1014E000417849B1817859B1C17804300029F5D1EA
:1014F000013823783BB91EE0013023781BB91AE08C
:1015000002302378BBB10021661877784218435423
:1015100067B1B37857705BB1F778937057B133798F
:101520000431002BD770EFD1084404E0501C02E0D6
:10153000901C00E0D01C40F66404002198ED040AE1
:10154000C2F20004017020460AF042FB40F2EC2097
:10155000C2F20000017861B1417849B1817859B196
:10156000C17804300029F5D1013823783BB91EE059
:10157000013023781BB91AE002302378BBB1002177
:10158000661877784218435467B1B37857705BB1E7
:10159000F778937057B133790431002BD770EFD1BE
:1015A000084404E0501C02E0901C00E0D01C40F60F
:1015B0006404002198ED050AC2F20004017020467F
:1015C0000AF006FB40F2EC20C2F20000017861B1A3
:1015D000417849B1817859B1C17804300029F5D1F9
:1015E000013823783BB91EE0013023781BB91AE09B
:1015F00002302378BBB10021661877784218435433
:1016000067B1B37857705BB1F778937057B133799E
:101610000431002BD770EFD1084404E0501C02E0E5
:10162000901C00E0D01C40F66404002198ED060AEE
:10163000C2F20004017020460AF0CAFA40F2EC201F
:10164000C2F20000017861B1417849B1817859B1A5
:10165000C17804300029F5D1013823783BB91EE068
:10166000013023781BB91AE002302378BBB1002186
:10167000661877784218435467B1B37857705BB1F6
:10168000F778937057B133790431002BD770EFD1CD
:10169000084404E0501C02E0901C00E0D01C40F61E
:1016A0006404002198ED070AC2F20004017020468C
:1016B0000AF08EFA40F2EC20C2F20000017861B12B
:1016C000417849B1817859B1C17804300029F5D108
:1016D000013823783BB91EE0013023781BB91AE0AA
:1016E00002302378BBB10021661877784218435442
:1016F00067B1B37857705BB1F778937057B13379AE
:101700000431002BD770EFD1084404E0501C02E0F4
:10171000901C00E0D01C40F66404002198ED080AFB
:10172000C2F20004017020460AF052FA40F2EC20A6
:10173000C2F20000017861B1417849B1817859B1B4
:10174000C17804300029F5D1013823783BB91EE077
:10175000013023781BB91AE002302378BBB1002195
:10176000661877784218435467B1B37857705BB105
:10177000F778937057B133790431002BD770EFD1DC
:10178000084404E0501C02E0901C00E0D01C40F62D
:101790006404002198ED090AC2F200040170204699
:1017A0000AF016FA40F2EC20C2F20000017861B1B2
:1017B000417849B1817859B1C17804300029F5D117
:1017C000013823783BB91EE0013023781BB91AE0B9
:1017D00002302378BBB1002167187E784218435449
:1017E00066B1BB7856705BB1FE78937056B13B79A9
:1017F0000431002BD670EFD1084404E0501C02E005
:10180000901C00E0D01C0021017040F2EC20C2F2DC
:10181000000000BF014611F8012B6AB14278002A8E
:1018200000F102020CD0817861B1C1780430002946
:10183000F0D1411E08E000BF0146013004E000BFC6
:10184000104601E0033011460D220A700A22027090
:1018500000208870BDE8F0812DE9F04F81B040F2A2
:10186000EC24C2F2000420464FF48061FEF760FED3
:10187000204610F8011B69B16178002904F10201CA
:101880000CD0A07860B1E07804340028F0D1601E5C
:1018900008E000BF2046013404E000BF0C4601E030
:1018A00003340846312101703A2140F6D07B217083
:1018B0000021C2F2000B8170BBF8281042F21070B8
:1018C00081424CF6CD4540F6640048F21F5A44F67A
:1018D000D35841F25979CCF6CC45C2F20000C5F29A
:1018E000EB1AC1F26208CDF2B71907D3A1FB0923A5
:1018F0005A0B30320270012204E000BFB1F57A7F4A
:101900004AD30022A1FB0837BB09A3FB0576F708E1
:1019100007EB8707A3EB470343F03007531C8754BB
:10192000A1FB0A277A09A2FB0576F70807EB8707D0
:10193000A2EB470242F030075A1CC754A1FB0537FF
:10194000FB08A3FB0576F70807EB8707A3EB470324
:1019500043F0300383540132A1FB0537FB0803EB4E
:101960008303A1EB430141F030018318815420210E
:10197000A3F8011040F2EC21C2F200010A7892B102
:101980004A787AB18A781AB3CA780431002AF5D134
:10199000013904784CB926E06429C1F0618500233F
:1019A000BEE700BF01310478ECB1002287187E78D1
:1019B0008B188C5496B1BC785E708CB1FE789C709C
:1019C00086B13C790432002CDE70EFD111440AE07C
:1019D00002310478002CE8D105E000BF591C02E078
:1019E000991C00E0D91CBBF82A2042F21077002392
:1019F000BA420B7006D3A2FB0913590B30310170A8
:101A0000012103E0B2F57A7F4AD30021A2FB083717
:101A1000BB09A3FB0576F70807EB8707A3EB470392
:101A200043F030074B1C4754A2FB0A177909A1FB6E
:101A30000576F70807EB8707A1EB470141F0300770
:101A4000591CC754A2FB0537FB08A3FB0576F70812
:101A500007EB8707A3EB470343F0300343540131FF
:101A6000A2FB0537FB0803EB8303A2EB430242F022
:101A70003002431842542021A3F8011040F2EC2117
:101A8000C2F200010A7892B14A787AB18A781AB320
:101A9000CA780431002AF5D1013904784CB926E01E
:101AA000642AC1F0E5840023BEE700BF0131047859
:101AB000ECB1002287187E788B188C5496B1BC78D4
:101AC0005E708CB1FE789C7086B13C790432002C3B
:101AD000DE70EFD111440AE002310478002CE8D125
:101AE00005E000BF591C02E0991C00E0D91C9BF8DE
:101AF0002C200023642A0B7006D3A2FB0A13590979
:101B000030310170012103E00A2A4FF000010DD3AA
:101B1000A2FB0537FB08A3FB0576F70847EA870712
:101B2000A3EB470343F0300343540131A2FB0537D5
:101B3000FB0803EB8303A2EB430242F0300243189D
:101B400042542021A3F8011040F2EC21C2F200011E
:101B50000A7862B14A784AB18A78EAB1CA7804311F
:101B6000002AF5D1013904781CB920E0013104784C
:101B7000ECB1002287187E788B188C5496B1BC7813
:101B80005E708CB1FE789C7086B13C790432002C7A
:101B9000DE70EFD111440AE002310478002CE8D164
:101BA00005E000BF591C02E0991C00E0D91C9BF81D
:101BB0002D200023642A0B7006D3A2FB0A135909B7
:101BC00030310170012103E00A2A4FF000010DD3EA
:101BD000A2FB0537FB08A3FB0576F70847EA870752
:101BE000A3EB470343F0300343540131A2FB053715
:101BF000FB0803EB8303A2EB430242F030024318DD
:101C000042542021A3F8011040F2EC21C2F200015D
:101C10000A7862B14A784AB18A78EAB1CA7804315E
:101C2000002AF5D1013904781CB920E0013104788B
:101C3000ECB1002287187E788B188C5496B1BC7852
:101C40005E708CB1FE789C7086B13C790432002CB9
:101C5000DE70EFD111440AE002310478002CE8D1A3
:101C600005E000BF591C02E0991C00E0D91C40F6B9
:101C7000640400209BED0C0AC2F2000408702046A8
:101C800009F0A6FF40F2EC20C2F20000017861B139
:101C9000417849B18178E9B1C17804300029F5D1A2
:101CA000013823781BB920E001302378EBB1002103
:101CB00067187E784218435496B1BB7856708BB142
:101CC000FE78937086B13B790431002BD670EFD14A
:101CD00008440AE002302378002BE8D105E000BF79
:101CE000501C02E0901C00E0D01CBBF8341042F203
:101CF000107300229942027006D3A1FB0902500B17
:101D000030302070012003E0B1F57A7F4AD3002003
:101D1000A1FB08239A09A2FB0537FB0803EB830309
:101D2000A2EB430242F03003421C2354A1FB0A03FE
:101D30005809A0FB0537FB0803EB8303A0EB430026
:101D400040F03003501CA354A1FB0523DA08A2FB8A
:101D50000537FB0803EB8303A2EB430242F030029A
:101D600022540130A1FB0523DA0802EB8202A1EB29
:101D7000420141F03001221821542020A2F8010034
:101D800040F2EC20C2F20000017891B1417879B1C3
:101D9000817819B3C17804300029F5D1013823784E
:101DA0004BB926E06429C1F06B830022BEE700BF77
:101DB00001302378EBB1002167187E784218435434
:101DC00096B1BB7856708BB1FE78937086B13B7933
:101DD0000431002BD670EFD108440AE0023023789A
:101DE000002BE8D105E000BF501C02E0901C00E091
:101DF000D01CBBF8361042F21073002299420270D8
:101E000006D3A1FB0902500B30302070012003E003
:101E1000B1F57A7F4AD30020A1FB08239A09A2FBDF
:101E20000537FB0803EB8303A2EB430242F03003C8
:101E3000421C2354A1FB0A035809A0FB0537FB08E9
:101E400003EB8303A0EB430040F03003501CA3548A
:101E5000A1FB0523DA08A2FB0537FB0803EB83038C
:101E6000A2EB430242F0300222540130A1FB0523D1
:101E7000DA0802EB8202A1EB420141F030012218A4
:101E800021542020A2F8010040F2EC20C2F2000010
:101E9000017891B1417879B1817819B3C178043072
:101EA0000029F5D1013823784BB926E06429C1F027
:101EB000EF820022BEE700BF01302378EBB10021A2
:101EC00067187E784218435496B1BB7856708BB130
:101ED000FE78937086B13B790431002BD670EFD138
:101EE00008440AE002302378002BE8D105E000BF67
:101EF000501C02E0901C00E0D01C9BF8381000221F
:101F00006429027006D3A1FB0A0250093030207008
:101F1000012003E00A294FF000000DD3A1FB0523A7
:101F2000DA08A2FB0537FB0843EA8303A2EB43026E
:101F300042F0300222540130A1FB0523DA0802EB03
:101F40008202A1EB420141F03001221821542020ED
:101F5000A2F8010040F2EC20C2F20000017861B169
:101F6000417849B18178E9B1C17804300029F5D1CF
:101F7000013823781BB920E001302378EBB1002130
:101F800067187E784218435496B1BB7856708BB16F
:101F9000FE78937086B13B790431002BD670EFD177
:101FA00008440AE002302378002BE8D105E000BFA6
:101FB000501C02E0901C00E0D01C9BF8391000225D
:101FC0006429027006D3A1FB0A0250093030207048
:101FD000012003E00A294FF000000DD3A1FB0523E7
:101FE000DA08A2FB0537FB0843EA8303A2EB4302AE
:101FF00042F0300222540130A1FB0523DA0802EB43
:102000008202A1EB420141F030012218215420202C
:10201000A2F8010040F2EC20C2F20000017861B1A8
:10202000417849B18178E9B1C17804300029F5D10E
:10203000013823781BB920E001302378EBB100216F
:1020400067187E784218435496B1BB7856708BB1AE
:10205000FE78937086B13B790431002BD670EFD1B6
:1020600008440AE002302378002BE8D105E000BFE5
:10207000501C02E0901C00E0D01CBBF83A1042F269
:10208000107300229942027006D3A1FB0902500B83
:1020900030302070012003E0B1F57A7F4AD3002070
:1020A000A1FB08239A09A2FB0537FB0803EB830376
:1020B000A2EB430242F03003421C2354A1FB0A036B
:1020C0005809A0FB0537FB0803EB8303A0EB430093
:1020D00040F03003501CA354A1FB0523DA08A2FBF7
:1020E0000537FB0803EB8303A2EB430242F0300207
:1020F00022540130A1FB0523DA0802EB8202A1EB96
:10210000420141F03001221821542020A2F80100A0
:1021100040F2EC20C2F20000017891B1417879B12F
:10212000817819B3C17804300029F5D101382378BA
:102130004BB926E06429C1F0B3810022BEE700BF9D
:1021400001302378EBB1002167187E7842184354A0
:1021500096B1BB7856708BB1FE78937086B13B799F
:102160000431002BD670EFD108440AE00230237806
:10217000002BE8D105E000BF501C02E0901C00E0FD
:10218000D01CBBF83C1042F210730022994202703E
:1021900006D3A1FB0902500B30302070012003E070
:1021A000B1F57A7F4AD30020A1FB08239A09A2FB4C
:1021B0000537FB0803EB8303A2EB430242F0300335
:1021C000421C2354A1FB0A035809A0FB0537FB0856
:1021D00003EB8303A0EB430040F03003501CA354F7
:1021E000A1FB0523DA08A2FB0537FB0803EB8303F9
:1021F000A2EB430242F0300222540130A1FB05233E
:10220000DA0802EB8202A1EB420141F03001221810
:1022100021542020A2F8010040F2EC20C2F200007C
:10222000017891B1417879B1817819B3C1780430DE
:102230000029F5D1013823784BB926E06429C1F093
:1022400037810022BEE700BF01302378EBB10021C7
:1022500067187E784218435496B1BB7856708BB19C
:10226000FE78937086B13B790431002BD670EFD1A4
:1022700008440AE002302378002BE8D105E000BFD3
:10228000501C02E0901C00E0D01C9BF83E10002285
:102290006429027006D3A1FB0A0250093030207075
:1022A000012003E00A294FF000000DD3A1FB052314
:1022B000DA08A2FB0537FB0843EA8303A2EB4302DB
:1022C00042F0300222540130A1FB0523DA0802EB70
:1022D0008202A1EB420141F030012218215420205A
:1022E000A2F8010040F2EC20C2F20000017861B1D6
:1022F000417849B18178E9B1C17804300029F5D13C
:10230000013823781BB920E001302378EBB100219C
:1023100067187E784218435496B1BB7856708BB1DB
:10232000FE78937086B13B790431002BD670EFD1E3
:1023300008440AE002302378002BE8D105E000BF12
:10234000501C02E0901C00E0D01C9BF83F100022C3
:102350006429027006D3A1FB0A02500930302070B4
:10236000012003E00A294FF000000DD3A1FB052353
:10237000DA08A2FB0537FB0843EA8303A2EB43021A
:1023800042F0300222540130A1FB0523DA0802EBAF
:102390008202A1EB420141F0300122182154202099
:1023A000A2F8010040F2EC20C2F20000017861B115
:1023B000417849B18178E9B1C17804300029F5D17B
:1023C000013823781BB920E001302378EBB10021DC
:1023D00067187E784218435496B1BB7856708BB11B
:1023E000FE78937086B13B790431002BD670EFD123
:1023F00008440AE002302378002BE8D105E000BF52
:10240000501C02E0901C00E0D01C9BF84010002201
:102410006429027006D3A1FB0A02500930302070F3
:10242000012003E00A294FF000000DD3A1FB052392
:10243000DA08A2FB0537FB0843EA8303A2EB430259
:1024400042F0300222540130A1FB0523DA0802EBEE
:102450008202A1EB420141F03001221821542020D8
:10246000A2F8010040F2EC20C2F20000017861B154
:10247000417849B18178E9B1C17804300029F5D1BA
:10248000013823781BB920E001302378EBB100211B
:1024900067187E784218435496B1BB7856708BB15A
:1024A000FE78937086B13B790431002BD670EFD162
:1024B00008440AE002302378002BE8D105E000BF91
:1024C000501C02E0901C00E0D01CBBF8421042F20D
:1024D000107300229942027006D3A1FB0902500B2F
:1024E00030302070012003E0B1F57A7F4AD300201C
:1024F000A1FB08239A09A2FB0537FB0803EB830322
:10250000A2EB430242F03003421C2354A1FB0A0316
:102510005809A0FB0537FB0803EB8303A0EB43003E
:1025200040F03003501CA354A1FB0523DA08A2FBA2
:102530000537FB0803EB8303A2EB430242F03002B2
:1025400022540130A1FB0523DA0802EB8202A1EB41
:10255000420141F03001221821542020A2F801004C
:1025600040F2EC20C2F20000017891B1417879B1DB
:10257000817819B3C17804300029F5D10138237866
:102580004BB926E06429C0F09B870022BEE700BF5C
:1025900001302378EBB1002167187E78421843544C
:1025A00096B1BB7856708BB1FE78937086B13B794B
:1025B0000431002BD670EFD108440AE002302378B2
:1025C000002BE8D105E000BF501C02E0901C00E0A9
:1025D000D01CBBF8441042F21073002299420270E2
:1025E00006D3A1FB0902500B30302070012003E01C
:1025F000B1F57A7F4AD30020A1FB08239A09A2FBF8
:102600000537FB0803EB8303A2EB430242F03003E0
:10261000421C2354A1FB0A035809A0FB0537FB0801
:1026200003EB8303A0EB430040F03003501CA354A2
:10263000A1FB0523DA08A2FB0537FB0803EB8303A4
:10264000A2EB430242F0300222540130A1FB0523E9
:10265000DA0802EB8202A1EB420141F030012218BC
:1026600021542020A2F8010040F2EC20C2F2000028
:10267000017891B1417879B1817819B3C17804308A
:102680000029F5D1013823784BB926E06429C0F040
:102690001F870022BEE700BF01302378EBB1002185
:1026A00067187E784218435496B1BB7856708BB148
:1026B000FE78937086B13B790431002BD670EFD150
:1026C00008440AE002302378002BE8D105E000BF7F
:1026D000501C02E0901C00E0D01C9BF84610002229
:1026E0006429027006D3A1FB0A0250093030207021
:1026F000012003E00A294FF000000DD3A1FB0523C0
:10270000DA08A2FB0537FB0843EA8303A2EB430286
:1027100042F0300222540130A1FB0523DA0802EB1B
:102720008202A1EB420141F0300122182154202005
:10273000A2F8010040F2EC20C2F20000017861B181
:10274000417849B18178E9B1C17804300029F5D1E7
:10275000013823781BB920E001302378EBB1002148
:1027600067187E784218435496B1BB7856708BB187
:10277000FE78937086B13B790431002BD670EFD18F
:1027800008440AE002302378002BE8D105E000BFBE
:10279000501C02E0901C00E0D01C9BF84710002267
:1027A0006429027006D3A1FB0A0250093030207060
:1027B000012003E00A294FF000000DD3A1FB0523FF
:1027C000DA08A2FB0537FB0843EA8303A2EB4302C6
:1027D00042F0300222540130A1FB0523DA0802EB5B
:1027E0008202A1EB420141F0300122182154202045
:1027F000A2F8010040F2EC20C2F20000017861B1C1
:10280000417849B18178E9B1C17804300029F5D126
:10281000013823781BB920E001302378EBB1002187
:1028200067187E784218435496B1BB7856708BB1C6
:10283000FE78937086B13B790431002BD670EFD1CE
:1028400008440AE002302378002BE8D105E000BFFD
:10285000501C02E0901C00E0D01C9BF848100022A5
:102860006429027006D3A1FB0A025009303020709F
:10287000012003E00A294FF000000DD3A1FB05233E
:10288000DA08A2FB0537FB0843EA8303A2EB430205
:1028900042F0300222540130A1FB0523DA0802EB9A
:1028A0008202A1EB420141F0300122182154202084
:1028B000A2F8010040F2EC20C2F20000017861B100
:1028C000417849B18178E9B1C17804300029F5D166
:1028D000013823781BB920E001302378EBB10021C7
:1028E00067187E784218435496B1BB7856708BB106
:1028F000FE78937086B13B790431002BD670EFD10E
:1029000008440AE002302378002BE8D105E000BF3C
:10291000501C02E0901C00E0D01C9BF949100022E2
:10292000B1F1FF3F027007DD48B264280BDB3123B1
:10293000A354013209E000BF49422D20012220703A
:1029400048B26428F3DA0A280DDBCBB2CD277B43EB
:10295000DB0A5F43FF0A47EA8707A3EB470343F01D
:102960003003A3540132672358430312C0F3C0302D
:1029700000EB930000EB8000A1EB40003030A11889
:10298000A0542020A1F8010040F2EC20C2F2000087
:10299000017861B1417849B18178E9B1C1780430F9
:1029A0000029F5D1013823781BB920E001302378C4
:1029B000EBB1002167187E784218435496B1BB787A
:1029C00056708BB1FE78937086B13B790431002B41
:1029D000D670EFD108440AE002302378002BE8D10A
:1029E00005E000BF501C02E0901C00E0D01C9BF9E9
:1029F0004A100022B1F1FF3F027007DD48B264289F
:102A00000BDB3123A354013209E000BF49422D20E2
:102A10000122207048B26428F3DA0A280DDBCBB219
:102A2000CD277B43DB0A5F43FF0A47EA8707A3EB17
:102A3000470343F03003A354013267235843031282
:102A4000C0F3C03000EB930000EB8000A1EB40002E
:102A50003030A118A0542020A1F8010040F2EC2051
:102A6000C2F20000017861B1417849B18178E9B1E1
:102A7000C17804300029F5D1013823781BB920E052
:102A800001302378EBB1002167187E784218435457
:102A900096B1BB7856708BB1FE78937086B13B7956
:102AA0000431002BD670EFD108440AE002302378BD
:102AB000002BE8D105E000BF501C02E0901C00E0B4
:102AC000D01C40F6640400219BED130AC2F20004FE
:102AD0000170204609F07CF840F2EC20C2F20000C0
:102AE000017861B1417849B18178E9B1C1780430A8
:102AF0000029F5D1013823781BB920E00130237873
:102B0000EBB1002167187E784218435496B1BB7828
:102B100056708BB1FE78937086B13B790431002BEF
:102B2000D670EFD108440AE002302378002BE8D1B8
:102B300005E000BF501C02E0901C00E0D01C40F6F5
:102B4000640400219BED140AC2F2000401702046C7
:102B500009F03EF840F2EC20C2F20000017861B1C9
:102B6000417849B18178E9B1C17804300029F5D1C3
:102B7000013823781BB920E001302378EBB1002124
:102B800067187E784218435496B1BB7856708BB163
:102B9000FE78937086B13B790431002BD670EFD16B
:102BA00008440AE002302378002BE8D105E000BF9A
:102BB000501C02E0901C00E0D01C40F66404002190
:102BC0009BED150AC2F200040170204609F000F8DE
:102BD00040F2EC20C2F20000017861B1417849B1C5
:102BE0008178E9B1C17804300029F5D10138237822
:102BF0001BB920E001302378EBB1002167187E7803
:102C00004218435496B1BB7856708BB1FE789370DE
:102C100086B13B790431002BD670EFD108440AE02D
:102C200002302378002BE8D105E000BF501C02E001
:102C3000901C00E0D01C9BF958100022B1F1FF3F1E
:102C4000027007DD48B264280BDB3123A354013244
:102C500009E000BF49422D200122207048B26428BB
:102C6000F3DA0A280DDBCBB2CD277B43DB0A5F43C7
:102C7000FF0A47EA8707A3EB470343F03003A35457
:102C80000132672358430312C0F3C03000EB9300B6
:102C900000EB8000A1EB40003030A118A0542020B0
:102CA000A1F8010040F2EC20C2F20000017861B10D
:102CB000417849B18178E9B1C17804300029F5D172
:102CC000013823781BB920E001302378EBB10021D3
:102CD00067187E784218435496B1BB7856708BB112
:102CE000FE78937086B13B790431002BD670EFD11A
:102CF00008440AE002302378002BE8D105E000BF49
:102D0000501C02E0901C00E0D01C9BF959100022DE
:102D1000B1F1FF3F027007DD48B264280BDB3123BD
:102D2000A354013209E000BF49422D200122207046
:102D300048B26428F3DA0A280DDBCBB2CD277B43F7
:102D4000DB0A5F43FF0A47EA8707A3EB470343F029
:102D50003003A3540132672358430312C0F3C03039
:102D600000EB930000EB8000A1EB40003030A11895
:102D7000A0542020A1F8010040F2EC20C2F2000093
:102D8000017861B1417849B18178E9B1C178043005
:102D90000029F5D1013823781BB920E001302378D0
:102DA000EBB1002167187E784218435496B1BB7886
:102DB00056708BB1FE78937086B13B790431002B4D
:102DC000D670EFD108440AE002302378002BE8D116
:102DD00005E000BF501C02E0901C00E0D01C40F653
:102DE000640400219BED170AC2F200040170204622
:102DF00008F0EEFE40F2EC20C2F20000017861B172
:102E0000417849B18178E9B1C17804300029F5D120
:102E1000013823781BB920E001302378EBB1002181
:102E200067187E784218435496B1BB7856708BB1C0
:102E3000FE78937086B13B790431002BD670EFD1C8
:102E400008440AE002302378002BE8D105E000BFF7
:102E5000501C02E0901C00E0D01C40F664040021ED
:102E60009BED180AC2F200040170204608F0B0FE83
:102E700040F2EC20C2F20000017861B1417849B122
:102E80008178E9B1C17804300029F5D1013823787F
:102E90001BB920E001302378EBB1002167187E7860
:102EA0004218435496B1BB7856708BB1FE7893703C
:102EB00086B13B790431002BD670EFD108440AE08B
:102EC00002302378002BE8D105E000BF501C02E05F
:102ED000901C00E0D01C40F6640400219BED190A10
:102EE000C2F200040170204608F072FE40F2EC20AD
:102EF000C2F20000017861B1417849B18178E9B14D
:102F0000C17804300029F5D1013823781BB920E0BD
:102F100001302378EBB1002167187E7842184354C2
:102F200096B1BB7856708BB1FE78937086B13B79C1
:102F30000431002BD670EFD108440AE00230237828
:102F4000002BE8D105E000BF501C02E0901C00E01F
:102F5000D01C40F6640400219BED1A0AC2F2000462
:102F60000170204608F034FE40F2EC20C2F200006E
:102F7000017861B1417849B18178E9B1C178043013
:102F80000029F5D1013823781BB920E001302378DE
:102F9000EBB1002167187E784218435496B1BB7894
:102FA00056708BB1FE78937086B13B790431002B5B
:102FB000D670EFD108440AE002302378002BE8D124
:102FC00005E000BF501C02E0901C00E0D01C40F661
:102FD000640400219BED1B0AC2F20004017020462C
:102FE00008F0F6FD40F2EC20C2F20000017861B179
:102FF000417849B18178E9B1C17804300029F5D12F
:10300000013823781BB920E001302378EBB100218F
:1030100067187E784218435496B1BB7856708BB1CE
:10302000FE78937086B13B790431002BD670EFD1D6
:1030300008440AE002302378002BE8D105E000BF05
:10304000501C02E0901C00E0D01C9BF87010002285
:103050006429027006D3A1FB0A02500930302070A7
:10306000012003E00A294FF000000DD3A1FB052346
:10307000DA08A2FB0537FB0843EA8303A2EB43020D
:1030800042F0300222540130A1FB0523DA0802EBA2
:103090008202A1EB420141F030012218215420208C
:1030A000A2F8010040F2EC20C2F20000017861B108
:1030B000417849B18178E9B1C17804300029F5D16E
:1030C000013823781BB920E001302378EBB10021CF
:1030D00067187E784218435496B1BB7856708BB10E
:1030E000FE78937086B13B790431002BD670EFD116
:1030F00008440AE002302378002BE8D105E000BF45
:10310000501C02E0901C00E0D01C9BF871100022C3
:103110006429027006D3A1FB0A02500930302070E6
:10312000012003E00A294FF000000DD3A1FB052385
:10313000DA08A2FB0537FB0843EA8303A2EB43024C
:1031400042F0300222540130A1FB0523DA0802EBE1
:103150008202A1EB420141F03001221821542020CB
:10316000A2F8010040F2EC20C2F20000017861B147
:10317000417849B18178E9B1C17804300029F5D1AD
:10318000013823781BB920E001302378EBB100210E
:1031900067187E784218435496B1BB7856708BB14D
:1031A000FE78937086B13B790431002BD670EFD155
:1031B00008440AE002302378002BE8D105E000BF84
:1031C000501C02E0901C00E0D01C9BF87210002202
:1031D0006429027006D3A1FB0A0250093030207026
:1031E000012003E00A294FF000000DD3A1FB0523C5
:1031F000DA08A2FB0537FB0843EA8303A2EB43028C
:1032000042F0300222540130A1FB0523DA0802EB20
:103210008202A1EB420141F030012218215420200A
:10322000A2F8010040F2EC20C2F20000017861B186
:10323000417849B18178E9B1C17804300029F5D1EC
:10324000013823781BB920E001302378EBB100214D
:1032500067187E784218435496B1BB7856708BB18C
:10326000FE78937086B13B790431002BD670EFD194
:1032700008440AE002302378002BE8D105E000BFC3
:10328000501C02E0901C00E0D01C9BF87310002240
:103290006429027006D3A1FB0A0250093030207065
:1032A000012003E00A294FF000000DD3A1FB052304
:1032B000DA08A2FB0537FB0843EA8303A2EB4302CB
:1032C00042F0300222540130A1FB0523DA0802EB60
:1032D0008202A1EB420141F030012218215420204A
:1032E000A2F8010040F2EC20C2F20000017861B1C6
:1032F000417849B18178E9B1C17804300029F5D12C
:10330000013823781BB920E001302378EBB100218C
:1033100067187E784218435496B1BB7856708BB1CB
:10332000FE78937086B13B790431002BD670EFD1D3
:1033300008440AE002302378002BE8D105E000BF02
:10334000501C02E0901C00E0D01C9BF8741000227E
:103350006429027006D3A1FB0A02500930302070A4
:10336000012003E00A294FF000000DD3A1FB052343
:10337000DA08A2FB0537FB0843EA8303A2EB43020A
:1033800042F0300222540130A1FB0523DA0802EB9F
:103390008202A1EB420141F0300122182154202089
:1033A000A2F8010040F2EC20C2F20000017861B105
:1033B000417849B18178E9B1C17804300029F5D16B
:1033C000013823781BB920E001302378EBB10021CC
:1033D00067187E784218435496B1BB7856708BB10B
:1033E000FE78937086B13B790431002BD670EFD113
:1033F00008440AE002302378002BE8D105E000BF42
:10340000501C02E0901C00E0D01C0021017040F232
:10341000EC20C2F2000000BF014611F8012B6AB196
:103420004278002A00F102020CD0817861B1C178A3
:1034300004300029F0D1411E08E000BF01460130F0
:1034400004E000BF104601E0033011460D220A706F
:103450000A2202700020887001B0BDE8F08F00BF22
:103460000A294FF00002BEF469AAFEF775BA00BF40
:103470000A2A4FF00001BEF4E5AAFEF7F1BA00BF38
:103480000A294FF00000BEF45FACFEF76BBC00BF32
:103490000A294FF00000BEF4DBACFEF7E7BC00BF2A
:1034A0000A294FF00000BEF417AEFEF723BE00BF9E
:1034B0000A294FF00000BEF493AEFEF79FBE00BF96
:1034C0000A294FF00000BFF42FA8FFF73BB800BF58
:1034D0000A294FF00000BFF4ABA8FFF7B7B800000F
:1034E000EFF3108072B600BFFEE7000070B541F642
:1034F000A400C0F60100FDF705F840F230110020ED
:10350000C2F200010A5C5AB10A18537853B1937899
:1035100053B1D2780430002AF4D10844013804E0D1
:10352000084402E0501C00E0901C40F2F861C2F236
:1035300000010E78BEB100228D186C788318865475
:1035400064B1AE785C705EB1EC789E7054B12E7947
:103550000432002EDC70EFD1104404E0581C02E06D
:10356000981C00E0D81C47F22E41C7F27841016058
:103570000021017140F6840040F23011C2F20000D7
:10358000C2F200010A2207F05BFC40F68006C2F29C
:103590000006307030B1014620A0FCF70DFF3078F6
:1035A00070BD00BF41F64D00C0F60100FCF7AAFF58
:1035B00040F6840540F6B424C2F2000540F214013E
:1035C000C2F20004C2F2000128469F22234607F0FF
:1035D00097FF40F2B3013070C2F200012846772213
:1035E000234607F08DFF307040B1014641F61800C8
:1035F000C0F60100FCF7E0FE307870BD216841F2B2
:10360000BF70C0F60100FCF7D7FE40F65E00C2F2C4
:10361000000001210170307870BD00BF6F70656ED1
:103620002046696C654E616D65206572726F72210E
:1036300021212025640D0A002DE9F04184B040F6D7
:103640005F06C2F20006307840F680050128C2F21B
:10365000000500F0948041F24C07C2F20007388860
:1036600040F65E0800F00F000F28C2F2000847D1B4
:10367000FDF704FD00241020CDE9004058A23020C1
:1036800050214FF6FF73029403F054FF307898F8FE
:10369000001080F0FF0001422CD041F61310C0F65C
:1036A0000100FCF72FFF40F6B42440F6840040F2FE
:1036B000EC21C2F20004C2F20000C2F200014FF499
:1036C0008062234607F01CFF0028287066D041F670
:1036D0006110C0F60100FCF76FFE012001240AF022
:1036E0000FF83470388800F4FE60B0F5FE6F46D1F4
:1036F0000CE000BF41F62210C0F60100FCF75CFEB2
:10370000388800F4FE60B0F5FE6F38D1FEF7A4F8FB
:1037100000241020CDE9004037A2302078214FF658
:10372000FF73029403F006FF307898F8001080F0E1
:10373000FF00014228D041F61310C0F60100FCF74B
:10374000E1FE40F6B42440F6840040F2EC21C2F2DF
:103750000004C2F20000C2F200014FF4806223466E
:1037600007F0CEFE287058B341F66110C0F6010094
:10377000FCF722FE0120012409F0C2FF34702878F2
:1037800004B0BDE8F08100BF41F62210C0F6010090
:10379000FCF712FE287804B0BDE8F081216841F6FC
:1037A0004310C0F60100FCF707FE388800F4FE6005
:1037B0003880388800F4FE60B0F5FE6FDFD1A5E7F1
:1037C000216841F64310C0F60100FCF7F5FD38888A
:1037D00000F00F003880287804B0BDE8F08100BF09
:1037E00073656E6420646174613120746F2073644A
:1037F000206361726400000073656E64206461740C
:10380000613220746F207364206361726400000071
:1038100080B540F68400C2F2000006F005FF41F6D4
:103820001F11C0F6010100200122BDE8804007F011
:10383000B3BA000080B540F67003C2F200039A7B71
:10384000012A84BF012080BD93F80EC08646002067
:1038500003F80C009A7B03EB8202C2F804E09A7B27
:103860001A44107393F80EC00CF101029A730CF114
:1038700030020A7042F63A72A1F80120C87080BD89
:10388000B0B582B040F6B82041F61F11C2F2000078
:10389000C0F60101012207F07FFA40F68005C2F26E
:1038A0000005287041F66100C0F60100FCF72AFE11
:1038B0002978E9B10D2921D141F6C600C0F60100F1
:1038C000FCF720FE41F61F104FF40074C0F6010013
:1038D00000214FF480520023009406F0E9FE287086
:1038E00090B120A0FCF768FD287802B0B0BD00BF01
:1038F00012A0FCF761FD287802B0B0BD29A0FCF74A
:103900005BFD287802B0B0BD19A0FCF7FBFD41F6C5
:103910001F14C0F6010400202146012207F03CFAE2
:10392000287040F6B820C2F200002146012207F0BC
:1039300033FA2870287802B0B0BD00BF66696C65A4
:103940002073797374656D2068617320616C726592
:10395000616479206265656E20666F726D61747452
:10396000656400006D6F756E74206572726F720011
:1039700054686520534420636172642073756363E7
:1039800065737366756C6C7920666F726D617474A3
:103990006564207468652066696C6520737973744A
:1039A000656D0D006D6F756E74206572726F723A81
:1039B000202564200D0A0000B0B55AA0FCF7A2FD36
:1039C00040F6840041F67911C2F20000C0F6010110
:1039D000012207F035FA40F68005C2F20005287092
:1039E00020B101465AA0FCF7E7FC2EE05EA0FCF7F0
:1039F00089FD40F6B42440F6840040F2F671C2F22C
:103A00000004C2F20000C2F200010422234607F0C3
:103A10000BFC287010B1014659A00EE0216841F25C
:103A2000DE70C0F60100FCF7C7FC41F6330040F23F
:103A3000F671C0F60100C2F20001FCF7BDFC40F6D1
:103A40008400C2F2000006F0EFFD40F2F670C2F210
:103A5000000083780178427840F2F860C2F20000FA
:103A6000382B0170427005D801338370D2B23A2AE4
:103A700007D20AE03023013283704270D2B23A2A70
:103A800003D330220131427001700021C17041F630
:103A9000A400C0F60100FCF735FD40F6840041F6B5
:103AA0007911C2F20000C0F601010A2207F0C8F93C
:103AB000287048B1014641F2FB70C0F60100FCF7E6
:103AC0007BFC2878B0BD00BF41F64D00C0F6010078
:103AD000FCF718FD40F6B42440F6840040F2F8618B
:103AE000C2F20004C2F20000C2F200010422234626
:103AF00007F006FD287028B1014641F61800C0F60F
:103B0000010004E0216841F2BF70C0F60100FCF73B
:103B100053FC40F68400C2F2000006F085FD2878D0
:103B2000B0BD00BF0D0A2A2A2A2A2A2052656164E4
:103B300020646174612066726F6D207465787420F2
:103B400066696C6573202A2A2A2A2A0D0000000063
:103B50006F70656E2066696C65206572726F723A6F
:103B60002025640D0A0000006F70656E2066696C88
:103B700065207375636573732121210D00000000BA
:103B8000726561642046696C654E616D6520657281
:103B9000726F722121212025640D0A00B0B5FFF754
:103BA0000BFF40F65F04C2F200042178002818BF22
:103BB0000120084304D00120012509F0A1FD257052
:103BC000FFF794FC2178002818BF0120084308BFA4
:103BD000B0BD0120012509F093FD2570B0BD0000A6
:103BE00090F82020013A012A08D8006800F1140258
:103BF0000020136819431160704700BF00F12402D0
:103C000001204FF4802113681943116070470000B0
:103C1000B0B590F82020013A012A2FD846F2006072
:103C2000C4F20000026842F001020260026822F45D
:103C30007C520260D1F814E0CC694A6A0368012C16
:103C400043EA022202600EF01F024FF0010303FA62
:103C500002F2C3696FEA020C23EA0203C36113D0C4
:103C60002CBBC36803EA0C03C360CB688C8844EAAE
:103C7000034300EBCE0423640B4611E0416A41F498
:103C8000802141620120B0BDC3681343C3600B684B
:103C90008C8844EA034300EBCE04236401F10C0357
:103CA0008C681B8843EA044300EBCE0463644368DA
:103CB0008D6943EA0204D1F810E0096A002D08BFBB
:103CC00003EA0C0444604369BEF1000F43EA0204B6
:103CD00008BF03EA0C040129446102D1C169114300
:103CE000C161016821F0010101600020B0BD000048
:103CF0007047000010B590F82040013C012C71D8AD
:103D0000D0F800C0002977D0DCF81040A40777D0A5
:103D10000CEB011CDCF8B0410CF5D87E14F0040467
:103D20009460DCF8B04119BFE4085460640D14607D
:103D3000DEF80040002904F00204D460DCF8B4414D
:103D400004F00F041461DCF8B441C4F30724946157
:103D5000DCF8B4414FEA14445461DCF8B8211A701D
:103D6000026802EB0112D2F8B8214FEA12225A700F
:103D7000026802EB0112D2F8B8214FEA12429A709F
:103D8000026802EB0112D2F8B8214FEA1262DA702F
:103D9000026802EB0112D2F8BC211A71026802EB30
:103DA0000112D2F8BC214FEA12225A71026802EBCA
:103DB0000112D2F8BC214FEA12429A71026802EB5A
:103DC0000112D2F8BC214FEA1262DA71006814BF06
:103DD00000F1100100F10C01002020220B681A43B1
:103DE0000A6010BD00F1240101204FF480220B680D
:103DF0001A430A6010BD00BFDCF80C40A40787D14D
:103E000000F1240101204FF400120B681A430A60EC
:103E100010BD00002DE9F04F81B0044600684669EE
:103E2000D0F804908768D0F80CB0D0F810A0D0F883
:103E30001880F10704D1002530071DD424E000BF0D
:103E4000F90710D00121BA07816009D4780700F181
:103E5000AF80380700F1B680204600F081FA02E01A
:103E6000204600F07FFA0025F80500F18780F8036E
:103E700000F1B180300707D51BF0100004D0206896
:103E800045F400751021C160700708D51BF00800CB
:103E900005D020680821C160204600F0EFF9B00786
:103EA00006D52068C068800702D0204600F0E8F9F7
:103EB000700607D51AF0100004D0206845F480651C
:103EC00010210161B00608D51AF0080005D020685D
:103ED00008210161204600F00FFAF00606D520689F
:103EE0000069800702D0204600F008FAB00308D528
:103EF00019F0100005D0206810214160204600F024
:103F0000FFF9F00308D519F0080005D02068082152
:103F10004160204600F030FA300440F19B805FEAB7
:103F2000497040F1948006F4807008EA102028431C
:103F30005FEA8871014648BF41F00201B20558BFEF
:103F400001465FEA48700D4648BF45F0040570051C
:103F500058BF0D46300540F17A8018F0700000F02F
:103F600076801038000905286CD8DFE800F0035986
:103F70005D61656945F0080564E000BF20684FF4A5
:103F80008071BA0581600BD4780515D438051DD42D
:103F9000204600F0E9F9F8037FF56CAF1BE000BFA5
:103FA000204600F0E3F9F8037FF564AF13E000BFAB
:103FB0004FF4006558E700BF05F50055F8037FF59D
:103FC00059AF08E04FF480554EE700BF05F5804536
:103FD000F8037FF54FAF20684FF48031BA0381605A
:103FE0000AD4780310D4380314D4204600F0C0F962
:103FF00030073FF541AF47E7204600F0BBF93007F7
:104000003FF53AAF40E700BF05F5004530073FF503
:1040100033AF39E705F5803530073FF52DAF33E78E
:1040200045F010050EE000BF45F020050AE000BF96
:1040300045F0400506E000BF45F0800502E000BF06
:1040400045F480752068816921F0700181612068E4
:104050000421416055B1606A40EA05012046616271
:1040600001B0BDE8F04FFFF743BE00BF01B0BDE8AF
:10407000F08F0000B0B5C8B1044690F8200010B928
:10408000204600F071F82068016841F001010160EC
:1040900000F05CFC054600BF20684168C90707D1F5
:1040A00000F054FC401B0B28F6D312E00120B0BDF9
:1040B000016821F00201016000F048FC054600BFE4
:1040C0002068416889070DD500F040FC401B0B2893
:1040D000F6D3606A052140F400306062012084F864
:1040E0002010B0BD217E0268012922F0800208BFA5
:1040F00080320260617E0268012922F0400208BF1E
:1041000040320260A17E0268012922F0200208BF2D
:1041100020320260E17E0268012922F0100218BFFD
:1041200010320260217F0268012922F0080208BFD4
:1041300008320260617F0268012922F0040208BF90
:1041400004320260D4E901C2D4E9033561691A433B
:104150002A431143ACF101021143C1610020012146
:10416000606284F82010B0BD10B586B0006846F6D5
:104170000002C4F2000200219042CDE90411CDE911
:10418000021101912ED046F20041C4F20001884292
:1041900072D140F22071C2F200010A6843F6400079
:1041A000C4F20200531C0B6052B900210091016857
:1041B00041F000710160016801F000710091009907
:1041C0000021009150F8101C142441F0020140F825
:1041D000101C50F8100C00F00200009000984FF4F2
:1041E000407031E043F64000C4F2020000910168E3
:1041F00041F080610160016801F0806100910099E7
:1042000040F22071C2F200010A68531C0B6052B9DF
:1042100000210091016841F000710160016801F026
:104220000071009100990021009150F8101C402469
:1042300041F0020140F8101C50F8100C00F0020090
:10424000009000984FF4405001900220029000200E
:104250000390032004900920059040F20040C4F22E
:10426000020001A900F092FA20460021002200F08D
:10427000F1FB204600F0DAFB06B010BD70470000ED
:1042800010B582B040F63451C2F20001884207D026
:1042900040F60C51C2F20001884217D002B010BDA6
:1042A00040F2B42440F63450C2F20004C2F20000DE
:1042B0006B4600212246FFF71DFD0028EED1206845
:1042C000694605F0CDFB02B010BD00BF40F2B4243A
:1042D000C2F2000440F60C5004F11C02C2F20000CD
:1042E0006B460021FFF706FD0028D7D1206A6946FA
:1042F00005F076FC02B010BD70470000704700006A
:1043000070470000B0B5044690F8200001281DD188
:10431000022084F820002068016821F0010101607A
:1043200000F014FB054600BF20684068C00713D0AA
:1043300000F00CFB401B0B28F6D3606A40F4003001
:104340006062052084F820000120B0BD606A40F45E
:10435000002060620120B0BD00206062B0BD00009E
:104360007047000070470000704700007047000071
:1043700070470000704700007047000090F835104B
:10438000022909D1052180F835100068016821F063
:1043900001010160002070478021416501207047C4
:1043A000F0B581B004460020009040F22C10C2F21B
:1043B00000000268D4E9166048F2B5133768082196
:1043C000C1F64E3381403942A2FB03250CD022684E
:1043D00013685B0708D5136823F004031360B1600A
:1043E000616D41F00101616501218140394208D0D0
:1043F00022685269120604D5B160616D41F0020174
:10440000616504218140394208D022681268920710
:1044100004D5B160616D41F00401616510218140F6
:10442000394217D020680268120713D5B1600268BC
:104430000168520308D4C90508D4016821F00801B5
:104440000160216C21B905E008033FD4216C09B15A
:1044500020468847E16D202000FA01F23A4241D01F
:1044600020680368DB063DD5B26094F835300268F9
:10447000052B1BD122F016020260426922F0800255
:104480004261226C0AB9A26C1AB1026822F00802D9
:1044900002603F208840B060012084F83500216D23
:1044A0000020002984F8340052D157E001685203FB
:1044B00010D4C90512D4016821F010010160012057
:1044C00084F83500002084F8340007E0A16C00294E
:1044D000BED1BFE7080301D4616C00E0E16B09B114
:1044E00020468847606DC8B3606DC0072ED0052098
:1044F00084F835002068A90A026822F001020260EF
:10450000009A01328A4200921AD80268D20717D064
:10451000009A01328A42009212D80268D2070FD064
:10452000009A01328A4200920AD80268D20707D064
:10453000009A01328A42009202D80268D207DFD183
:10454000012084F83500002084F83400E16C29B1A2
:10455000204601B0BDE8F040084700BF01B0F0BD03
:104560002DE9F041044600F0F1F9ECB105460220D6
:1045700084F835000020216884F83400086820F0B1
:104580000100086021680868C00711D000F0DEF95A
:10459000401B0528F6D9032520230320636584F8F2
:1045A0003550BDE8F08100BF0120BDE8F08100BFBB
:1045B000086848F23F02CFF21002D4E9013500EA60
:1045C000020C04F10C0898E8C10143EA0C032B43E8
:1045D0001843D4E9072E304338431043626A40EA57
:1045E0000E00042A40EA08031CD1206BD4E90A2EED
:1045F00040EA0E00184308604869BEF1000F20F041
:10460000030040EA020040F0040C11D0B8F5005F4E
:1046100036D0B8F1000F45D1022A46D0012A3BD04E
:1046200032B942E00B60486920F0070040EA020C12
:1046300001F0F8004AF6AB221038CAF6AA22A0FB15
:1046400002231A0941F2A773C0F601039A5C40F2F3
:10465000FF335F284FF03F00C1F814C021EA030187
:1046600000FA02F088BF0431C4E916128860002302
:1046700001250020636584F83550BDE8F08100BF56
:10468000032AD5D8012540230120DFE802F0030EDC
:10469000030500BF82E700BFAEF1C070B0FA80F042
:1046A000400904E0032A04D3C2D1CEF300600028FD
:1046B000BED0012540230120636584F83550BDE854
:1046C000F081000070B590F834C0BCF1010F46D005
:1046D0004FF0010C80F834C0D0F858E090F835C0A5
:1046E000BCF1010F38D14FF0020C80F835C04FF00B
:1046F000000CC0F854C0D0F800C08468056CC06DD0
:10470000DCF80060402C26F48026CCF80060CCF861
:1047100004300B4604BF13460A463F2101FA00F05D
:10472000CCF80830CCF80C20CEF80800DCF80000FB
:1047300040F01600CCF800002DB1DCF8000040F08D
:104740000800CCF80000DCF8000040F00100CCF8D4
:104750000000002070BD00BF002180F8341002204E
:1047600070BD0000B0B5044600F0F0F8054640F218
:104770000C00C2F200000078611C18BF044400BFA6
:1047800000F0E4F8401BA042FAD3B0BD2DE9F04F91
:1047900082B000F13E4241F6004502F1FF77C4F2DB
:1047A0000205082243F6004E4FEAB726A84208BF8A
:1047B0000722C4F2010E072E38BF4FEAB7220125A7
:1047C000002600274FF00008009208E008F10108D9
:1047D0000437B8F1100F06F1020600F0A7800C684C
:1047E00005FA08F914EA090FF0D0D1F804B0032251
:1047F0000BF0030CACF10104B240012C6FEA020A89
:1048000010D88268CC6802EA0A02B440224382606F
:104810004268CBF3001422EA090204FA08F42243A6
:10482000426005E0BCF1030F02D14FF0030C20E021
:10483000C2688C6802EA0A02B4402243BCF1020F4B
:10484000C26016D16FF0030202EA58020244D2F8A5
:1048500020C007F01C050F230C69AB402CEA0303B2
:1048600004FA05F52B431362D1F804B001250BF0CF
:10487000030C02680CFA06F302EA0A021A431BF45C
:10488000403F0260A2D0002243F644030192C4F2EA
:1048900002031A684FF6084C42F480421A601A6804
:1048A000CFF6FF7C02F480420192019A28F00302C5
:1048B000724452F80C3007F00C050F24AC40A343AF
:1048C000009C04FA05F52B4342F80C30DEF8082072
:1048D0004B6842EA090543F60C4CDC0258BF22EA59
:1048E0000905CEF80850C4F2010CDCF800209C0247
:1048F00042EA090558BF22EA0905CCF80050DEF863
:1049000004209C0342EA090558BF22EA0905CEF8B3
:104910000450DEF80020DB0342EA090558BF22EA12
:104920000905CEF80050012550E700BF02B0BDE8F0
:10493000F08F00000069084018BF01207047000098
:10494000002A08BF090481617047000041F250004D
:10495000C2F200000068704740F20C0041F25001C2
:10496000C2F20000C2F2000100780A681044086038
:104970007047000080B543F60040C4F202000168B1
:1049800041F400710160016841F4806101600168D7
:1049900041F480710160032000F088F80F2000F0DE
:1049A00005F800F027F8002080BD000070B540F247
:1049B0000C06C2F2000640F22C113278C2F200015D
:1049C0004FF47A730968B3FBF2F20446B1FBF2F1DB
:1049D000084601F06DFA0F2C4FF0010508D838B9E0
:1049E0004FF0FF3021460022002500F033F87460BC
:1049F000284670BD82B0002043F640010190C4F209
:104A000002014A6842F480424A604A6802F48042E5
:104A10000192019A0090086840F080500860086890
:104A200000F080500090009802B07047002848BF06
:104A30007047C1B200F01F00012202FA00F04EF2EE
:104A40000012CEF2000242EAD10121F00301086017
:104A50007047000010B54EF60C5CCEF2000CDCF88E
:104A60000030C3F3022E8EF00704042C28BF042468
:104A7000BEF103034FF0FF3E0EFA04F438BF0023EB
:104A8000A14399400EFA03F39A43114300F00F0239
:104A900000F160430901043A03F5644362440028CD
:104AA00048BF02F10C03197010BD00004EF60C5106
:104AB000CEF200010A684FF6FF031A4060F30A22A3
:104AC00042F0806040F0FD70086070472DE9F041D1
:104AD000002800F08B8043F60808C4F20208044660
:104AE000D8F8F8030D4600F00700884207D288F88E
:104AF000F853D8F8F80300F00700A84276D12068F0
:104B0000810717D5410705D5D8F8001041F4E051C9
:104B1000C8F80010010705D5D8F8001041F460412D
:104B2000C8F80010D8F80010A26821F0F001114375
:104B3000C8F80010C0073FD1D8F8F80300F007000C
:104B4000A84207D988F8F853D8F8F80300F007000E
:104B5000A8424BD12068410707D5D8F80010E26879
:104B600021F4E0511143C8F80010000708D5D8F827
:104B70000000216920F4604040EAC100C8F800004C
:104B800000F07CF8D8F800104EF2E012C1F30311E7
:104B9000C0F60002515C40F22C1220FA01F140F202
:104BA0001000C2F200000068C2F200021160FFF7BC
:104BB000FDFE0020BDE8F0816068811E022907D259
:104BC00058F8081C89015CBF0120BDE8F08111E0A4
:104BD000012807D158F8081C89035CBF0120BDE8F3
:104BE000F08107E058F8081C890703D40120BDE8CC
:104BF000F08100BFD8F8001021F003010843C8F885
:104C00000000FFF7A3FE064641F28837D8F80000FF
:104C1000616800F00C00B0EB810F8DD0FFF796FEBD
:104C2000801BB842F2D90320BDE8F08140F22C107D
:104C300043F60801C2F20000C4F2020100680968EC
:104C40004EF2F012C1F38221C0F60002515CC8405E
:104C50007047000040F22C1043F60801C2F2000039
:104C6000C4F20201006809684EF2F012C1F3423149
:104C7000C0F60002515CC8407047000010B543F612
:104C80000404C4F20204606800F00C0142F2004027
:104C90000829C0F2F40007D0042918BF10BD41F262
:104CA0000020C0F27A0010BD216801F03F022168A7
:104CB00023684902C3F3881106D4A1FB0001002335
:104CC000FBF702FB07E000BF41F20020C0F27A00D0
:104CD0004843B0FBF2F021680222C1F3014102EB2C
:104CE0004101B0FBF1F010BD2DE9F04182B0002888
:104CF00068D00446007843F60006C007C4F20206F6
:104D00000BD0B06800F00C00042840F09F803068A1
:104D1000800302D56068002854D0207880071AD517
:104D2000B06810F00C0F09D0B06800F00C00082833
:104D300040F0A6807068400200F1A28030688007D1
:104D400002D5E06801283DD13068216920F0F800E3
:104D500040EAC10030602078000737D4207840074F
:104D60004CD4A56955B3B06800F00C00082840F099
:104D7000BB80012D26D07068E16900F480028A4270
:104D800020D1216A00F03F028A421BD147F6C07150
:104D9000626A0140B1EB821F14D1A16A4FF6FF7322
:104DA000C903994300F44032A1F580318A4209D108
:104DB000E16A00F07060B0EB016F03D1002002B037
:104DC000BDE8F081012002B0BDE8F08160690028F3
:104DD00040F20000C4F2472076D00121C0F8801EC6
:104DE000FFF7B4FD054600BF706F8007B6D4FFF72C
:104DF000ADFD401B0228F7D9DDE000BF306C10F09C
:104E000080580AD100200190306C40F0805030640E
:104E1000306C00F080500190019847F20007C4F216
:104E200000073868C00541D4386840F480703860A5
:104E3000FFF78CFD054600BF3868C00536D4FFF784
:104E400085FD401B0228F7D9B5E000BFB06800F02F
:104E50000C00082803D1706840023FF558AF606825
:104E6000B0F5803F07D0B0F5A02F40F08D803068BE
:104E700040F480203060306840F4803030608DE055
:104E8000E068002852D00020C4F2472001210160D0
:104E9000FFF75CFD054600BF306880073FF554AF63
:104EA000FFF754FD401B0228F6D984E0A0680128D2
:104EB00005D005284ED1306F40F004003067306FC8
:104EC00040F0010030674FE00021C0F8801EFFF77E
:104ED0003DFD0546706F80077FF540AFFFF736FD5B
:104EE000401B0228F6D966E00027C4F247270020BD
:104EF0003866FFF72BFD022D05460BD13068800187
:104F00005ED5FFF723FD401B02284FF00300F5D9C3
:104F100055E700BF306880017FF550AFFFF716FD01
:104F2000401B02284FF00300F4D948E70020C4F2E8
:104F3000472000210160FFF709FD05463068800722
:104F40007FF509AFFFF702FD401B02284FF0030079
:104F5000F4D934E7316F002821F001013167316F56
:104F600021F0040131674DD0FFF7F0FC054641F216
:104F7000883700BF306F800756D4FFF7E7FC401B2F
:104F8000B842F7D917E000BF3168002821F480311A
:104F90003160316821F4802131604FD0FFF7D6FCB9
:104FA000054600BF306880033FF5B7AEFFF7CEFC83
:104FB000401B6428F6D9032002B0BDE8F08100BF91
:104FC00004F11C052FCD084340EA8210D9034FF6A7
:104FD000FF729143A1F5803140EA0560084370609B
:104FE00001203866FFF7B2FC044600BF306880013C
:104FF0003FF5E4AEFFF7AAFC001B02284FF00300C8
:10500000F4D9DCE6FFF7A2FC054641F2883700BF81
:10501000306F800708D5FFF799FC401BB8424FF06E
:105020000300F5D9CBE600BFB8F1000F7FF499AECD
:10503000306C20F08050306493E600BFFFF786FCB0
:10504000054600BF306880037FF567AEFFF77EFC42
:10505000401B64284FF00300F4D9B0E6FBF790BF83
:105060007047000080B5D0E9193ED0F844C09A0FCF
:105070000A70C3F383624A70C3F301628A701A0C28
:10508000CA701A0A0A714FEA1E524B71CA80CEF3D7
:1050900003420A72CEF3C0324A72CEF380328A7271
:1050A000CEF34032CA72CEF300320A730022BCF152
:1050B000010F4A7336D0BCF1000F40F0878040F6F4
:1050C000FC72C36E02EA8E0242EA93720A61C26EF9
:1050D000C2F3C2630B75C2F302634B75C2F3425352
:1050E0008B75C2F38243CB75C2F3C2330B76D1F812
:1050F00010C00B7E0CF1010C03F0070302330CFA15
:1051000003FCC0F854C00B7A03F00F0E012303FA1E
:105110000EF383655B0A03FB0CF3C3654FF4007366
:1051200012E000BFB0F86E200EF03F0342EA0342E7
:105130000A610A694FF4806303EB82224FF4007323
:10514000C0E91523C265C26E0366C2F380334B7695
:10515000C2F3C61302F07F028B76CA76006FC20FCD
:105160000A77C0F341724A77C0F382628A77C0F34C
:105170008352CA77C0F3405281F820200022C0F346
:10518000004381F8212081F82230C0F3C03381F838
:105190002330C0F3803381F82430C0F3403381F8EA
:1051A0002530C0F3003381F82630C0F3812381F825
:1051B0002730C0F30123C0B2400881F8283081F8BD
:1051C0002900012081F82A00104680BD016840F2C4
:1051D000FF52C0F240028A63816B012241F080518C
:1051E000816380F83420104680BD000080B500F156
:1051F000440E9EE80C5081E80C10426DC1E903E2B8
:10520000D0E91623C1E90523026E0020CA6180BDE2
:1052100010B5016D04460068090403F0C1FC28B113
:10522000A16B0843A063002010BD00BF20680021CF
:1052300003F0E2FAC0F3432010BD0000F0B581B0E6
:1052400004460068256B416B05F0080609042BD560
:1052500056B3E56A2DB3A66A03F0F4FA306020680D
:1052600003F0F0FA7060206803F0ECFAB060206898
:1052700003F0E8FAF060206803F0E4FA3061206897
:1052800003F0E0FA7061206803F0DCFAB061206896
:1052900003F0D8FAF06106F12000A5F12001C4E97D
:1052A0000A0101B0F0BD00BF416BC90540D4416B9C
:1052B000490465D5002E63D0666A002EF1D0276AB6
:1052C0006D4639680091294603F0C0FA7968206874
:1052D0000091294603F0BAFAB9682068009129467E
:1052E00003F0B4FAF96820680091294603F0AEFA99
:1052F000396920680091294603F0A8FA7969206885
:105300000091294603F0A2FAB96920680091294664
:1053100003F09CFAF869294600902068203703F0D2
:1053200095FAA6F12000C4E9087001B0F0BD00BFF5
:105330004FF480718163C16B4CF23A329143C16387
:10534000C16A002E21F00101C16259D12906A8D5F8
:10535000A90608D503F096FC28B1A16B0843A06309
:105360002046FFF77DFEA8079BD12068C16A21F087
:105370000801C1620121204684F834105EE000BFBC
:10538000416B40F23A2211423FF48BAF416B8907E7
:105390005AD4416B09075ED4416B890662D4416BD4
:1053A000C90666D4416B890503D5A16B41F008019C
:1053B000A16340F23A718163C16B40F23A3291438A
:1053C000C16303F05FFCA16B002E40EA0100A06303
:1053D00058D128067FF565AF15F0300F5ED0E06B31
:1053E00048F6A961C0F600010165FEF7C7FF002875
:1053F0003FF457AFE06B01B0BDE8F04003F054BD9F
:1054000015F0220F08D003F03DFC28B1A16B084332
:10541000A0632046FFF724FE206840F23A518163E2
:10542000012084F834000020A9072063204605D01D
:1054300001B0BDE8F04000F0F3BA00BF01B0BDE834
:10544000F04000F0EFBA00BFA16B41F00201A16390
:10545000416B0907A0D5A16B41F00801A163416B25
:1054600089069CD5A16B41F02001A163416BC9065F
:1054700098D5A16B41F01001A163416B890594D4CB
:1054800097E700BF0120002184F834002046216303
:1054900001B0BDE8F040FFF7E3BD00BFA80711D0A1
:1054A000206C48F63D61C0F600010165FEF766FF1D
:1054B00000283FF4F6AE206C01B0BDE8F04003F0E8
:1054C000BDBC00BF00210120A16384F83400204648
:1054D000216301B0BDE8F040FFF7C0BD10B5D8B101
:1054E000044690F8340020B900202077204600F0D0
:1054F00023F9032084F83400204600F00FF8002838
:105500004FF0010018BF10BD0021A163216384F892
:105510003400002010BD00BF012010BDF0B58FB0D9
:105520000446006876210026029100210022002313
:105530000096019603F06AF94FF0010510B1284674
:105540000FB0F0BD48F2A007C4F225273E602068E6
:1055500003F072F902203D60FFF704F90496206819
:1055600003F0DAF940B1012584F83450A16B084307
:10557000A06328460FB0F0BD206803F0FDF958B1D4
:1055800020680021A16403F0C7F90028EBD1A06CCA
:10559000012803D00AE000BF0120A0642068002198
:1055A00003F05AF910B14FF08050DCE704984FF641
:1055B000FE76B0421ED80025CCF2101520680021DE
:1055C00003F04AF90028CED12068294603F050F9AB
:1055D0000028E8D12068002103F00EF90499013178
:1055E00004910499B14202D8B0F1FF3FE6DCC0F368
:1055F000807000E0002004994FF6FF72914203D3BF
:105600004FF08070AFE700BF606420680125ADF8FF
:105610000E5003F0EDF888B1606C032812D12068B9
:10562000042103F0E9F8000DE06404A92046FFF727
:1056300019FD002854D04FF0805095E74FF080605E
:1056400092E700BF206803F00FFA00287FF48CAFC8
:105650002068002103F0D0F8216860670846042123
:1056600003F0CAF82168A0670846082103F0C4F8CF
:105670002168E06708460C2103F0BEF8616CC4F8AD
:1056800080000329CBD020680DF10E0103F094FABD
:1056900000287FF469AF606C0328C0D0BDF80E10FD
:1056A00020682165090403F02DFA00287FF45CAF1F
:1056B0002068002103F0A0F82168606608460421F4
:1056C00003F09AF82168A0660846082103F094F8D0
:1056D0002168E06608460C2103F08EF820679EE7FB
:1056E000216D20680A04002303F0B2F900287FF43A
:1056F0003BAF94E88F00D4E90565CDE900760295CB
:1057000003F084F820684FF4007103F0F9F878B1E1
:10571000216840F2FF52C0F240028A63A16B01256A
:105720000843A06384F8345028460FB0F0BD00BF92
:10573000002528460FB0F0BD2DE9F04385B0006884
:1057400042F60045C4F20105A84203D005B0BDE809
:10575000F08300BF002643F630000096C4F202003A
:1057600041696C4641F40061416141694FF00208B2
:1057700001F4006100910099009601684FF003095F
:1057800041F00401016001680C2701F0040100915F
:1057900000990096016841F0080101600068214607
:1057A00000F00800009000984FF48850009005F534
:1057B0005C40CDE90186CDF80C900497FEF7E6FF3A
:1057C0000420CDE9000805F560402146CDE90269D5
:1057D0000497FEF7DBFF312000210022FFF73AF9A2
:1057E0003120FFF723F905B0BDE8F0832DE9F0473C
:1057F00086B01F4616460D460446FFF7A7F89DB132
:10580000804694F83400012816D10021A163E06D90
:10581000BA19824218D9A06B40F00070A063012031
:1058200006B0BDE8F08700BFA06B40F00060A06349
:10583000012006B0BDE8F087A06B40F00050A063E7
:10584000012006B0BDE8F087032084F83400626CC4
:105850002068012A4FF0FF32C16218BF7602009221
:105860007A024FF0020901929022CDE903914FF0A4
:10587000010A69460292CDF814A002F0A5FF022F9A
:1058800018D3C4F830902068314603F0C9F8C8B185
:10589000216840F2FF52C0F240028A63A16B0843C4
:1058A000A0630120002184F83400216306B0BDE824
:1058B000F08700BFC4F830A02068314603F0BCF880
:1058C0000028E5D1DDF83890019E40F22A3A05E043
:1058D000FFF73CF8A0EB0800484541D22068426B36
:1058E000416B12EA0A0F25D10904F1D5002EEFD041
:1058F00002F0A8FF2860206802F0A4FF686020681A
:1059000002F0A0FFA860206802F09CFFE860206819
:1059100002F098FF2861206802F094FF6861206817
:1059200002F090FFA861206802F08CFFE86120354A
:10593000203ECDE7022F27D311F4807124D0616C73
:10594000032921D003F09EF901462068E1B140F21D
:10595000FF52C0F240028263A06B0843A0E700BF81
:10596000206840F2FF51C0F240018163A06B40F01B
:105970000040A063012084F834000020206303204D
:1059800006B0BDE8F08700BF416B090720D4416B2A
:10599000890727D4416B89062ED42068416B890280
:1059A00034D59EB302F04EFF45F8040B043EFEF7DB
:1059B000CDFFA0EB08004845EFD3206840F2FF512F
:1059C000C0F240018163A06B40F0004068E700BF77
:1059D00040F2FF51C0F240018163A06B40F008002B
:1059E0005EE700BF40F2FF51C0F240018163A06B4F
:1059F00040F0020054E700BF40F2FF51C0F2400106
:105A00008163A06B40F020004AE700BF40F23A51AA
:105A10008163012084F83400002006B0BDE8F087DF
:105A2000FBF7F8BAFBF70CBB2DE9F04F87B09846AF
:105A300015460E460446FEF789FF9EB1824694F84D
:105A40003400012816D10021A163E06D08EB0502A6
:105A5000824217D9A06B40F00070A063012007B00C
:105A6000BDE8F08FA06B40F00060A063012007B09C
:105A7000BDE8F08FA06B40F00050A063012007B09C
:105A8000BDE8F08F032084F83400626C2068012A9E
:105A90004FF0FF32C16218BF6D0201924FEA4822F7
:105AA00002929022CDE9032105910121069101A9DD
:105AB00002F08AFEB8F1020F18D32020206320687C
:105AC000294603F0EFF8C8B1216840F2FF52C0F256
:105AD00040028A63A16B0843A0630120002184F87F
